:0300000002041ED9
:03002B00020406C6
:10002E00C0E0C0D0C000C001C002E4F538F539F51B
:10003E003AF53BF53C7A20E533A2E779047830E6D1
:10004E0033F608D9FA79057838E636D4F608D9F9B0
:10005E00DAE5D002D001D000D0D0D0E022C0E0C08E
:10006E00D0C000C001C002E4F538F539F53AF53BD1
:10007E00F53C7A20E533A2E779047830E633F608CA
:10008E00D9FA79057838C0D0E6243320E70224D097
:10009E0020E30224FDD0D033F608D9EADAD6D00216
:1000AE00D001D000D0D0D0E022C0E0C0D0C000C07F
:1000BE0001C0027A207905C3783CE613C0D030E740
:1000CE000224D030E30224FDF618D0D0D9EC790406
:1000DE007833E613F618D9FADADBD002D001D00065
:1000EE00D0D0D0E022C0E0C0D0E5302534F530E5E8
:1000FE00313535F531E5323536F532E5333537F50F
:10010E0033D0D0D0E022C0E0C0D0C3E5309534F576
:10011E0030E5319535F531E5329536F532E53395E5
:10012E0037F533D0D0D0E022C0E0C0D0C3E5309553
:10013E0034E5319535E5329536E53395379200D075
:10014E00D0D0E022C0E0C0D0C3E5349530E535957F
:10015E0031E5369532E53795339200D0D0D0E02296
:10016E00C0E0C0D0C200C3E53495307014E53595BB
:10017E0031700EE53695327008E53795337002D240
:10018E0000D0D0D0E02212016E20000302015222D4
:10019E0012016E20000302013622C0E0C0F0C0D072
:1001AE00C000C001C002C003E5308534F0A4F8A938
:1001BE00F0E5318534F0A429F9E435F0FAE530851F
:1001CE0035F0A429F9E5F03AFAE433FBE53285344B
:1001DE00F0A42AFAE5F03BFBE5318535F0A42AFAC6
:1001EE00E5F03BFBE5308536F0A42AFAE5F03BFB63
:1001FE00E5338534F0A42BFBE5328535F0A42BFBDB
:10020E00E5318536F0A42BFBE5308537F0A42BFBCA
:10021E008B338A3289318830D003D002D001D0009E
:10022E00D0D0D0F0D0E022C0E0C0D0C000C001C01D
:10023E0002C003C0047C20E4F8F9FAFBC3E53033B6
:10024E00F530E53133F531E53233F532E53333F55B
:10025E0033E833F8E933F9EA33FAEB33FBC3E895C5
:10026E0034E99535EA9536EB95374013E89534F831
:10027E00E99535F9EA9536FAEB9537FB433001DC13
:10028E00BBD004D003D002D001D000D0D0D0E02219
:10029E0085303485313585323685333722E530C5A4
:1002AE0034F530E531C535F531E532C536F532E593
:0602BE0033C537F53322C1
:1002C400C00078B10000D8FCD00022C000C0017981
:1002D4002D78A6D8FED9FADAF6D001D00022D2B30E
:1002E4001202C4C2B322A2E792B7A2E692B6A2E572
:1002F40092B5A2E492B41202E21202C4A2E392B74B
:10030400A2E292B6A2E192B5A2E092B41202E22273
:10031400D2B20202EAC2B20202EAC2B374331203D4
:10032400197433120319743212031974281203193D
:10033400740C1203197401120319C0027A02120216
:10034400CFD00222E4936006120314A380F6224461
:10035400404480020319C0E0E8C4540F443012033F
:1003640014742E120314E8540F4430120314D0E012
:1003740022C0E0E8C4540F4430120314E8540F447C
:1003840030120314D0E02243617061636974616EBA
:100394006365287546293A202020004F75746F66DE
:1003A40052616E676520202020202020002E20200E
:1003B4002020202020202020202020202000C0E0F9
:1003C400740114120353D0E0C000A83C120375D08A
:1003D40000C000A83B120375D000C000A83A120365
:1003E40075D000C000A839120375D000C000A83829
:1003F400120375D0002275C80075CB0075CA00D2EF
:10040400AD22C2CFC0E0053DE53D7002053ED0E01F
:10041400321203FA12031ED2AF2275817F12041521
:10042400D2A0C0E0740114120355D0E0C083C0828E
:10043400C0E090038B120348D0E0D082D083C2CABC
:1004440075CC0075CD00753D00753E00C2CFD2CA93
:10045400E53E54FE703420A0F7E53E54FE702B3088
:10046400A0F7C2CA75CC0075CD00753D00753E007D
:10047400C2CFD2CAE53E54FE701020A0F7E53E5428
:10048400FE700730A0F7C2CA801FC0E074011412C6
:100494000353D0E0C083C082C0E090039F1203489E
:1004A400D0E0D082D083020442E5CC45CD453D4521
:1004B4003E60D785CC3085CD31853D32853E337560
:1004C400342D7535007536007537001201A8020405
:1004D400DE12002E1203C202044275346475350024
:1004E4007536007537001202357534907535007510
:1004F40036007537001201A87534EA753503753670
:100504000075370012023575347475350075360080
:090514007537001201140204D530
:00000001FF
