:030000000203E216
:03002B000203CA03
:10002E00C0E0C0D0C000C001C002E4F538F539F51B
:10003E003AF53BF53C7A20E533A2E779047830E6D1
:10004E0033F608D9FA79057838E636D4F608D9F9B0
:10005E00DAE5D002D001D000D0D0D0E022C0E0C08E
:10006E00D0C000C001C002E4F538F539F53AF53BD1
:10007E00F53C7A20E533A2E779047830E633F608CA
:10008E00D9FA79057838C0D0E6243320E70224D097
:10009E0020E30224FDD0D033F608D9EADAD6D00216
:1000AE00D001D000D0D0D0E022C0E0C0D0C000C07F
:1000BE0001C0027A207905C3783CE613C0D030E740
:1000CE000224D030E30224FDF618D0D0D9EC790406
:1000DE007833E613F618D9FADADBD002D001D00065
:1000EE00D0D0D0E022C0E0C0D0E5302534F530E5E8
:1000FE00313535F531E5323536F532E5333537F50F
:10010E0033D0D0D0E022C0E0C0D0C3E5309534F576
:10011E0030E5319535F531E5329536F532E53395E5
:10012E0037F533D0D0D0E022C0E0C0D0C3E5309553
:10013E0034E5319535E5329536E53395379200D075
:10014E00D0D0E022C0E0C0D0C3E5349530E535957F
:10015E0031E5369532E53795339200D0D0D0E02296
:10016E00C0E0C0D0C200C3E53495307014E53595BB
:10017E0031700EE53695327008E53795337002D240
:10018E0000D0D0D0E02212016E20000302015222D4
:10019E0012016E20000302013622C0E0C0F0C0D072
:1001AE00C000C001C002C003E5308534F0A4F8A938
:1001BE00F0E5318534F0A429F9E435F0FAE530851F
:1001CE0035F0A429F9E5F03AFAE433FBE53285344B
:1001DE00F0A42AFAE5F03BFBE5318535F0A42AFAC6
:1001EE00E5F03BFBE5308536F0A42AFAE5F03BFB63
:1001FE00E5338534F0A42BFBE5328535F0A42BFBDB
:10020E00E5318536F0A42BFBE5308537F0A42BFBCA
:10021E008B338A3289318830D003D002D001D0009E
:10022E00D0D0D0F0D0E022C0E0C0D0C000C001C01D
:10023E0002C003C0047C20E4F8F9FAFBC3E53033B6
:10024E00F530E53133F531E53233F532E53333F55B
:10025E0033E833F8E933F9EA33FAEB33FBC3E895C5
:10026E0034E99535EA9536EB95374013E89534F831
:10027E00E99535F9EA9536FAEB9537FB433001DC13
:10028E00BBD004D003D002D001D000D0D0D0E02219
:10029E0085303485313585323685333722E530C5A4
:1002AE0034F530E531C535F531E532C536F532E593
:0602BE0033C537F53322C1
:1002C400C00078B10000D8FCD00022C000C0017981
:1002D4002D78A6D8FED9FADAF6D001D00022D2B30E
:1002E4001202C4C2B322A2E792B7A2E692B6A2E572
:1002F40092B5A2E492B41202E21202C4A2E392B74B
:10030400A2E292B6A2E192B5A2E092B41202E22273
:10031400D2B20202EAC2B20202EAC2B374331203D4
:10032400197433120319743212031974281203193D
:10033400740C1203197401120319C0027A02120216
:10034400CFD00222E4936006120314A380F6224461
:10035400404480020319C0E0E8C4540F443012033F
:1003640014E8540F4430120314D0E022506572692B
:100374006F6420286E73293A202020004E6F20736A
:1003840069676E616C20202020202000C000A83CFA
:1003940012035AD000C000A83B12035AD000C00078
:1003A400A83A12035AD000C000A83912035AD00048
:1003B400C000A83812035AD0002275C80075CB00BB
:1003C40075CA00D2AD22C2CFC0E0053DE53D700242
:1003D400053ED0E0321203BE12031ED2AF22758155
:1003E4007F1203D9D280C0E0740114120355D0E007
:1003F400C083C082C0E0900370120348D0E0D08272
:10040400D083C2CA75CC0075CD00753D00753E0021
:10041400C2CFD2CAE53E54FE70342080F7E53E5484
:10042400FE702B3080F7C2CA75CC0075CD00753DC7
:1004340000753E00C2CFD2CAE53E54FE7010208043
:10044400F7E53E54FE70073080F7C2CA801FC0E053
:10045400740114120353D0E0C083C082C0E090033F
:1004640080120348D0E0D082D083020406E5CC4554
:10047400CD453D453E60D785CC3085CD31853D3277
:10048400853E3375342D7535007536007537001289
:1004940001A87534A07535867536017537001202CA
:1004A40035C0E0740114120353D0E012002E12037D
:0404B40090020406A8
:00000001FF
