:1000000002000375818C12018DE582600302006F8E
:10001000780079007A007B007C007D00EC4D601C4C
:1000200088828983E493A3A882A9838A828B83F040
:10003000A3AA82AB831CBCFFE31D80E07582007520
:1000400083007C007D00EC4D600AE4F0A31CBCFF43
:10005000F51D80F27582007583007C007D00EC4DFB
:10006000600AE4F0A31CBCFFF51D80F2120125120A
:10007000039680FE313A25342E3266726D73202548
:10008000342E3166487A00333A25342E3266726D4A
:10009000732025342E3266DF006368616E6E656CF6
:1000A000203020706572696F64286D73293A253598
:1000B0002E33660A006368616E6E656C20302076B0
:1000C0006F6C7461676528726D73293A25352E331C
:1000D000660A006368616E6E656C2033207065721D
:1000E000696F64286D73293A25352E33660A0063DB
:1000F00068616E6E656C203320766F6C7461676525
:1001000028726D73293A25352E33660A00706861AE
:100110007365202864656772656573293A20253503
:100120002E33660A00228582E0A2E792A1D2A3A222
:10013000A292F7C2A3A2E692A1D2A3A2A292F6C271
:10014000A3A2E592A1D2A3A2A292F5C2A3A2E49295
:10015000A1D2A3A2A292F4C2A3A2E392A1D2A3A28B
:10016000A292F3C2A3A2E292A1D2A3A2A292F2C24D
:10017000A3A2E192A1D2A3A2A292F1C2A3A2E09271
:10018000A1D2A3A2A292F0C2A385F08222758E1101
:1001900075E60075E70075D60075D70075CE007559
:1001A000CF0075C60075C700438780759852759B50
:1001B00000759AF4759B1E75AE0075820022AA82A6
:1001C000C28C5389F0438901EA24FA5006EA24FBE1
:1001D000FA80027A018A11751200751300751400F5
:1001E00090FFEA74FFF5F0120FABAA82AB83C28DC9
:1001F0008B047D008C8C7B008A8AD28C308DFD2212
:10020000AA82AB837C007D00C3EC9AED9B502B7ED1
:1002100000BE0400501D7582FAC002C003C004C0B5
:1002200005C0061201BED006D005D004D003D0020E
:100230000E80DE0CBC00D10D80CE22AA82C2A07539
:100240008201C002120126D002EAC454F0FA74807E
:100250004AF582120126AA8274035AFC7B00758239
:1002600000C003C004120126AA82D004D0037D007E
:10027000EA2BFBED3CFCD2A08B828C8322D2B3759F
:1002800082281201BEC2B322AA828AE0A2E792B7F4
:10029000A2E692B6A2E592B5A2E492B4C00212021E
:1002A0007D7582281201BED0028AE0A2E392B7A235
:1002B000E292B6A2E192B5A2E092B402027DAA82D5
:1002C000D2B28A82120288900002020200AA82C27E
:1002D000B28A82120288900005020200C2B3900026
:1002E000141202007582331202CD7582331202CDD0
:1002F0007582321202CD7582281202CD75820C12DF
:1003000002CD7582011202CD900014020200AA8271
:10031000AB83ACF07402B522047DC080027D808D79
:1003200082C002C003C0041202CD90000512020078
:10033000D004D003D0027D007E00ED2AFFEE3BF812
:100340008C018F82888389F0120F8FFF60208F824B
:10035000C002C003C004C005C0061202BED006D051
:1003600005D004D003D0020DBD00CF0E80CC3000EC
:10037000248D028E03C3EA9410EB648094805015A0
:10038000758220C002C0031202BED003D0020ABA96
:1003900000E30B80E0225389F04389011202DC75EF
:1003A0002201D20090004B75F04012030E7522021C
:1003B000D20090005B75F04012030EC28CC28D75A6
:1003C0008A00758C0075820012023BAA82AB83C33F
:1003D00074029AE49B40EE75820012023BAA82AB43
:1003E00083C3EA9404EB940040EDD28C7A007B0046
:1003F000758203C002C00312023BAC82AD83D003FE
:10040000D002C374029CE49D500C108D0280E10A5E
:10041000BA00DD0B80DA758203C002C00312023B12
:10042000AC82AD83D003D002C3EC9404ED940050B1
:100430000C108D0280E00ABA00DC0B80D9C28C8AD5
:10044000828B83121262AA82AB83ACF0FDC002C021
:1004500003C004C00590000075F080744712108539
:10046000AA82AB83ACF0FDE58124FCF581858C820A
:10047000C002C003C004C005121128AE82AF83A819
:10048000F0F9C006C007C000C00190000075F08000
:100490007443121085AE82AF83A8F0F9E58124FC85
:1004A000F581D005D004D003D002C006C007C0003B
:1004B000C0018A828B838CF0ED121133AA82AB8348
:1004C000ACF0FDE58124FCF581AE8A7F008E828F41
:1004D00083C002C003C004C005121262AE82AF83A3
:1004E000A8F0F9D005D004D003D002C006C007C0E0
:1004F00000C0018A828B838CF0ED121133AA82AB8B
:1005000083ACF0FDE58124FCF58174CDC0E074CCB2
:10051000C0E074ACC0E07446C0E08A828B838CF08B
:10052000ED12126F85824785834885F049F54AE5CB
:100530008124FCF581C28D758A00758C007582005E
:1005400012023BAE82AF83C374029EE49F40EE75FD
:10055000820012023BAE82AF83C3EE9404EF94009C
:1005600040EDD28C7E007F00758200C006C007126D
:10057000023BA882A983D007D006C3740298E499ED
:10058000500C108D0280E10EBE00DD0F80DAC28CAF
:100590008E828F83121262AE82AF83A8F0F9C006FA
:1005A000C007C000C00190000075F08074471210B1
:1005B00085AE82AF83A8F0F9E58124FCF581858CB6
:1005C00082C006C007C000C001121128AA82AB83F6
:1005D000ACF0FDC002C003C004C00590000075F07F
:1005E000807443121085AA82AB83ACF0FDE58124B0
:1005F000FCF581D001D000D007D006C002C003C0F6
:1006000004C0058E828F8388F0E9121133AA82AB71
:1006100083ACF0FDE58124FCF581AE8A7F008E82FB
:100620008F83C002C003C004C005121262AE82AF45
:1006300083A8F0F9D005D004D003D002C006C007CB
:10064000C000C0018A828B838CF0ED121133858249
:100650002385832485F025F526E58124FCF581E4B6
:10066000C0E0C0E0C0E07440C0E085238285248300
:100670008525F0E52612126F85822B85832C85F067
:100680002DF52EE58124FCF581C28D758A00758CCF
:100690000075820012023BAA82AB83C374029AE403
:1006A0009B40EE75820012023BAA82AB83C3EA94A0
:1006B00004EB940040EDD28CE4F53BF53C853B82A5
:1006C000853C83121262AC82AD83AEF0FFC004C0E1
:1006D00005C006C00790000075F0807447121085B1
:1006E000AC82AD83AEF0FFE58124FCF581858C8280
:1006F000C004C005C006C007121128A882A983AA99
:10070000F0FBC000C001C002C00390000075F08083
:100710007443121085AA82AB83A8F0F9E58124FC0A
:10072000F581D007D006D005D004C002C003C000B8
:10073000C0018C828D838EF0EF121133AA82AB83BD
:10074000ACF0FDE58124FCF581AE8A7F008E828FBE
:1007500083C002C003C004C005121262AE82AF8320
:10076000A8F0F9D005D004D003D002C006C007C05D
:1007700000C0018A828B838CF0ED121133AA82AB08
:1007800083ACF0FDE58124FCF581C02BC02CC02D8D
:10079000C02E8A828B838CF0ED121055AA82E581DF
:1007A00024FCF581EA6011108D030206BD053BE4CF
:1007B000B53B02053C0206BDC28C75820012023BAD
:1007C000121019AA82AB83ACF0FDC002C003C004B2
:1007D000C00590126F75F0837440121085AA82AB29
:1007E00083ACF0FDE58124FCF581E4C0E074C0C079
:1007F000E0747FC0E07444C0E08A828B838CF0EDAB
:1008000012126FAA82AB83ACF0FDE58124FCF58166
:1008100074F3C0E07404C0E074B5C0E0743FC0E09D
:100820008A828B838CF0ED12126F85823F85834024
:1008300085F041F542E58124FCF58174CDC0E0747A
:10084000CCC0E074ACC0E07446C0E085238285244F
:10085000838525F0E52612126FAE82AF83A8F0F9EA
:10086000E58124FCF581C006C007C000C0019000EE
:1008700000E4F5F0744012108585822F8583308561
:10088000F031F532E58124FCF581E4C0E0C0E0748C
:100890007AC0E07444C0E0852F828530838531F0D2
:1008A000E53212126FAA82AB83ACF0FDE58124FC25
:1008B000F581C002C003C004C00590000075F0803F
:1008C000743F12126FAA82AB83ACF0FDE58124FC69
:1008D000F581C002C003C004C005C03FC040C04194
:1008E000C0427474C0E07400C0E07480C0E0744B17
:1008F000C0E07400C0E07440C0E0121211E5812431
:10090000F2F581C28D758A00758C00758203120222
:100910003BAA82AB83C374029AE49B40EE758203C8
:1009200012023BAA82AB83C3EA9404EB940040ED2D
:10093000D28C7A007B00758203C002C00312023B96
:10094000AC82AD83D003D002C374029CE49D500CF2
:10095000108D0280E10ABA00DD0B80DAC28C8A8237
:100960008B83121262AA82AB83ACF0FDC002C0037B
:10097000C004C00590000075F0807447121085AA6D
:1009800082AB83ACF0FDE58124FCF581858C82C0CF
:1009900002C003C004C005121128AE82AF83A8F0C4
:1009A000F9C006C007C000C00190000075F0807457
:1009B00043121085AE82AF83A8F0F9E58124FCF5DF
:1009C00081D005D004D003D002C006C007C000C04B
:1009D000018A828B838CF0ED121133AA82AB83AC37
:1009E000F0FDE58124FCF581AE8A7F008E828F8345
:1009F000C002C003C004C005121262AE82AF83A859
:100A0000F0F9D005D004D003D002C006C007C00062
:100A1000C0018A828B838CF0ED1211338582278589
:100A2000832885F029F52AE58124FCF581E4C0E0DE
:100A3000C0E0C0E07440C0E0852782852883852916
:100A4000F0E52A12126F85823785833885F039F5F3
:100A50003AE58124FCF581C28CC28D758A00758CC3
:100A60000075820312023BAA82AB83C374029AE42C
:100A70009B40EE75820312023BAA82AB83C3EA94C9
:100A800004EB940040EDD28CE4F53DF53E853D82CB
:100A9000853E83121262AC82AD83AEF0FFC004C00B
:100AA00005C006C00790000075F0807447121085DD
:100AB000AC82AD83AEF0FFE58124FCF581858C82AC
:100AC000C004C005C006C007121128A882A983AAC5
:100AD000F0FBC000C001C002C00390000075F080B0
:100AE0007443121085AA82AB83A8F0F9E58124FC37
:100AF000F581D007D006D005D004C002C003C000E5
:100B0000C0018C828D838EF0EF121133AA82AB83E9
:100B1000ACF0FDE58124FCF581AE8A7F008E828FEA
:100B200083C002C003C004C005121262AE82AF834C
:100B3000A8F0F9D005D004D003D002C006C007C089
:100B400000C0018A828B838CF0ED121133AA82AB34
:100B500083ACF0FDE58124FCF581C037C038C03995
:100B6000C03A8A828B838CF0ED121055AA82E581FF
:100B700024FCF581EA6011108D03020A8D053DE425
:100B8000B53D02053E020A8DC28C75820312023BFE
:100B9000121019AA82AB83ACF0FDC002C003C004DE
:100BA000C00590126F75F0837440121085AA82AB55
:100BB00083ACF0FDE58124FCF581E4C0E074C0C0A5
:100BC000E0747FC0E07444C0E08A828B838CF0EDD7
:100BD00012126FAA82AB83ACF0FDE58124FCF58193
:100BE000C002C003C004C00574CDC0E074CCC0E036
:100BF00074ACC0E07446C0E08527828528838529CF
:100C0000F0E52A12126FAE82AF83A8F0F9E58124D5
:100C1000FCF581C006C007C000C001900000E4F5EB
:100C2000F0744012108585823385833485F035F564
:100C300036E58124FCF581D005D004D003D00274C0
:100C4000F3C0E07404C0E074B5C0E0743FC0E08A53
:100C5000828B838CF0ED12126F85824385834485ED
:100C6000F045F546E58124FCF581C02FC030C03148
:100C7000C03290000075F0B4744312126FAE82AFB0
:100C800083A8F0F9E58124FCF581C006C007C00007
:100C9000C0018547828548838549F0E54A12108561
:100CA000AE82AF83A8F0F9E58124FCF581C006C0CF
:100CB00007C000C001E4C0E0C0E07434C0E0744389
:100CC000C0E08E828F8388F0E9121025AA82E58128
:100CD00024FCF581D001D000D007D006EA700302D1
:100CE0000EBAE4C0E0C0E074B4C0E07443C0E08E6B
:100CF000828F8388F0E9121257AE82AF83A8F0F991
:100D0000E58124FCF581C006C007C000C001C00613
:100D1000C007C000C001C043C044C045C04674877E
:100D2000C0E07400C0E07480C0E0745BC0E0740098
:100D3000C0E07440C0E0121211E58124F2F581D0C8
:100D400001D000D007D006C006C007C000C001E433
:100D5000C0E0C0E0C0E0C0E08E828F8388F0E9127E
:100D60001055AA82E58124FCF581D001D000D0077E
:100D7000D006EA7003020EFBC002C006C007C00026
:100D8000C001E4C0E0C0E074A0C0E074C1C0E08E67
:100D9000828F8388F0E9121055AB82E58124FCF53F
:100DA00081D001D000D007D006D002EB6068E4C04B
:100DB000E0C0E074A0C0E07440C0E08E828F838801
:100DC000F0E9121257AE82AF83A8F0F9E58124FC56
:100DD000F581C006C007C000C001C006C007C00042
:100DE000C001C043C044C045C0467487C0E0740021
:100DF000C0E07480C0E0745BC0E07400C0E0744088
:100E0000C0E0121211E58124F2F581D001D000D0AA
:100E100007D006020EFBC002C006C007C000C0011A
:100E2000E4C0E0C0E074A0C0E074C1C0E08E828F76
:100E30008388F0E9121025AB82E58124FCF581D08E
:100E400001D000D007D006D002EB7003020EFBEAFF
:100E50007003020EFBE4C0E0C0E07440C0E0C0E0FC
:100E60008E828F8388F0E9121257AE82AF83A8F08A
:100E7000F9E58124FCF581C006C007C000C001C0AF
:100E800006C007C000C001C043C044C045C046748E
:100E900087C0E07400C0E07480C0E0745BC0E074A0
:100EA00000C0E07440C0E0121211E58124F2F58127
:100EB000D001D000D007D0068041C006C007C000D6
:100EC000C001C006C007C000C001C043C044C04547
:100ED000C0467487C0E07400C0E07480C0E0745BFA
:100EE000C0E07400C0E07440C0E0121211E581243B
:100EF000F2F581D001D000D007D006C006C007C0EF
:100F000000C001C02FC030C031C0327499C0E0743D
:100F100000C0E07480C0E01211A1E58124F9F581E0
:100F2000C03FC040C041C04274B5C0E07400C0E0E2
:100F30007480C0E01211A1E58124F9F581C033C0AD
:100F400034C035C03674D3C0E07400C0E07480C0D3
:100F5000E01211A1E58124F9F581C043C044C045E8
:100F6000C04674EFC0E07400C0E07480C0E01211AD
:100F7000A1E58124F9F581740DC0E07401C0E0742D
:100F800080C0E01211A1E58124F9F58102039F20C0
:100F9000F71430F6148883A88220F507E6A8837535
:100FA000830022E280F7E49322E022AAF0FBE582AC
:100FB0008511F0A4FCADF0E5838511F0A42DFDE4CE
:100FC00035F0FEE5828512F0A42DFDE5F03EFEE44D
:100FD00033FFEA8511F0A42EFEE5F03FFFE583859F
:100FE00012F0A42EFEE5F03FFFE5828513F0A42E5B
:100FF000FEE5F03FFFEB8511F0A42FFFEA8512F02C
:10100000A42FFFE5838513F0A42FFFE5828514F05C
:10101000A42F8EF08D838C8222E4AC83AB82FAF90C
:10102000748E021397FFA88118181213BFD2D13300
:10103000E6400730E70B7582012220E70675820043
:1010400022C2D11213A1E97003F5822230D101B37B
:10105000E433F58222FFA88118181213BFD2D133CE
:10106000E6400730E70B7582002220E70675820113
:1010700022C2D11213A1E97003F5822220D101B35B
:10108000E433F5822212146CBC000302140BEF60EF
:10109000FA30D502B2D1E583B4FF03021421E58210
:1010A000B4FF03021421258340072482400B02145D
:1010B0000B2483145003021421F582EA8DF0A4A8B6
:1010C000F0EA8EF0A428F8E435F0F9EB8DF0A428CE
:1010D000E935F0F9E433CA8FF0A429F9EA35F0FADA
:1010E000EBF88EF0A429F9EA35F0FAE433FBEC8D45
:1010F000F0A429F9EA35F0FAE43BFBE88FF0A42AE2
:10110000FAEB35F0FBE433CCFD8EF0A42AFAEB3594
:10111000F0FBE43CFCED8FF0A42BFBEC35F0FC2065
:10112000E7031214390213EAE4AC82FBFAF974867D
:1011300002139712146C7900E583B58202800D507A
:101140000312149AE583C395821214B4E5D0C465E2
:10115000D020E117EA2DFAEB3EFBEC3FFC5009747E
:10116000011214B4EC4480FC0213EAC3EA9DFAEBCA
:101170009EFBEC9FFC500FC3E499F9E49AFAE49BC0
:10118000FBE49CFCB2D11214390213EA021E8385DF
:10119000827985837A85F07B85107C90118C02188A
:1011A000D6C008858108E50824FBF57CE50824FB0A
:1011B000F8867908867A08867B90118C1218D6D02A
:1011C0000822AA82AB09AC0AAD0B8B828C838DF00E
:1011D000EA121E980509E4B50902050A228582096A
:1011E00085830A85F00B850C79850D7A850E7B85C4
:1011F0000F7C9011C21218D6AA82AB83AC09AD0A3B
:10120000AE0B8C828D838EF0E4121E988A828B83C3
:1012100022C008858108E50824F8F57CE50824FB50
:10122000F8860908860A08860BE50824F8F8867906
:1012300008867A08867B9011C21218D6AA82AB83E0
:10124000AC09AD0AAE0B8C828D838EF0E4121E9831
:101250008A828B83D00822A8811818C6B2E7C602FA
:101260001133AC83AB827A007900748E021EBA12FD
:10127000146C30D502B2D1BF0009BC000302142E99
:10128000021421BC000302140BE583B4FF0BE582BA
:10129000B4FF0302142E02140BE582B4FF03021400
:1012A00021C395835007247F400B02140B24801424
:1012B0005003021421C0E0E4CCCBCAF98D118E1288
:1012C0008F13EF54F0C4F5147583068514F0EB8486
:1012D000F582E9C4F9EAC4FAEBC4FBEC540FC47814
:1012E00003D6FC18EBD6FB18EAD6FA8582F0EDA4FB
:1012F000A8F0FD8582F0EEA428FEE435F0F88582A2
:10130000F0EFA428FFE435F0F8E99DF9EA9EFAEB46
:101310009FFBEC98FCAD11AE12AF1330E7101582B5
:10132000E92DF9EA3EFAEB3FFBE43CFC80EDC0829C
:10133000D58398C3E933F9EA33FAEB33FBEC33FC9A
:10134000C3E99DEA9EEB9FEC9400B3E413F9D0024D
:10135000D0E0C44AFAD003D0E0C44BFBD004D0E0C4
:10136000F5F0540FC44CFCD082158230F40FD3EC4E
:1013700013FCEB13FBEA13FAE913F90582E930E7F2
:101380000A74012AFAE43BFBE43CFC021402FCABC5
:10139000F0AA83A982749EC2D1F582121439021375
:1013A000EA7901AA82E68F82B5821318E6B5F00EBB
:1013B00018E6B5830918E68A82B58202790022B45C
:1013C000800FE5F0700AE5837006E58270027F0009
:1013D000EFB6801518B6001018B6000B18B6000648
:1013E00008080876002208080822B98003EA13B327
:1013F0004010EA2401FAE43BFBE43CFC50047C800E
:101400000582BC000EBB000BBA0008E4F5F0F583C2
:10141000F58222A2D1E582138CF092F78B838A8227
:1014200022E4F583F58275F080F4A2D11322E4F56D
:1014300083F58275F0C0747F227804EC7011E58228
:1014400024F8500AF582E4C9CACBFCD8EF22EC7824
:1014500020058220E713D5820122C3E933F9EA335C
:10146000FAEB33FBEC33FCD8EA158222AA82AB8379
:10147000A2F73392D16002D2F7F582ACF0E5812475
:10148000F9F8E6FD08E6FE0886F008E6A2F73392D2
:10149000D56002D2F7F583AFF022E582C583F582ED
:1014A000A2D133A2D592D11392D5ECCFFCEBCEFBD7
:1014B000EACDFA226040F82582500274FFF582E8F6
:1014C00024F8501ECCCBCAF9E4CC24F85014CBCA73
:1014D000F9E4CB24F8500BCAF9E4CA24F850037994
:1014E000002224086010F8C3EC13FCEB13FBEA1392
:1014F000FAE913F9D8F122AA827408C0E07415C081
:10150000E0C06BC06C8A82220572E4B5720205737A
:1015100022AA8274302AFA24C6500A74072AFA30A2
:1015200001034302208A820214F7E582FAC4540FB1
:10153000F582C002121511D002740F5AF5820215FD
:1015400011AA6DAB6EAC6FAD70AE71757820EE2EDA
:10155000FEED235401FF4206EA2AFAEB33FBEC339B
:10156000FCED33FDC3EE95744008EEC39574FE4365
:101570000201D578D98A6D8B6E8C6F8D708E712239
:101580007889E624D075F00AA4FA788AE624D02A6D
:10159000FA78888603BB2D04C3E49AFA757401C3F4
:1015A000E464808AF063F08095F050297578038AAE
:1015B0000374F62578401C0574E57814247DF8E55D
:1015C00078247DF98704A604772E1BEBFA600405C6
:1015D0007880DE8B02EA30E70D787E8603787FA67E
:1015E00003787E762E0AE576600AE57604FB25749C
:1015F000F5748005300C020574787D8603E4BB2DFC
:101600000104FB700620070330080205743005034F
:101610000216C7300657EB600C75822DC0021214FB
:10162000F7D002801C30070C75822BC0021214F711
:10163000D002800D30080A758220C0021214F7D043
:1016400002787E8604BC2E0C758230C0021214F71C
:10165000D0021575AC751575C3E5749C400302176F
:101660000B758230C0021214F7D00280E7AC7515FA
:1016700075C3E5749C500C758220C0021214F7D01B
:101680000280EA787D8604BC2D0C75822DC0021282
:1016900014F7D002801C30070C75822BC002121484
:1016A000F7D002800D30080A758220C0021214F7AC
:1016B000D002787E8604BC2E52758230C00212148D
:1016C000F7D00215758044EB600E75822DC00212B2
:1016D00014F7D0021575802030070E75822BC002DA
:1016E0001214F7D0021575800F30080C758220C0D7
:1016F000021214F7D0021575787E8603BB2E0C7586
:101700008230C0021214F7D0021575757801C20E2E
:10171000E578247DF88603BB45030217C8BB2E3449
:101720008A03C3E464808BF063F08095F0500F75FA
:101730008230C0031214F7D0031B8B0280E48B02AB
:10174000D20EE5767038200C030217C875822E126F
:1017500014F78074300E278A03EB30E71FC3E4646C
:10176000808576F063F08095F0500C758230C00370
:101770001214F7D00315760B8B0280DD8B02300E2E
:101780000EC3E464808576F063F08095F05021E527
:1017900078247DF886038B82C0021214F7D00230C1
:1017A0000E0EE578247DF88603BB2E0280021576A6
:1017B0001575C3E464808576F063F08095F040038E
:1017C000200E050578021710C3E464808576F06367
:1017D000F08095F0500A7582301214F7157680E883
:1017E00030050FAA751575EA60087582201214F786
:1017F00080F122E5767003300C0D74072576FAE54A
:1018000075C39AF5758006E57524FAF57575780047
:10181000787D8602BA2B0F20070C787D7620200871
:10182000057578010575200519AA75C3E464808AD9
:10183000F063F08095F0500A7582201214F7157548
:1018400080E7C20EE578247DF88602BA000280693E
:10185000BA451F3001027665C3E464808576F06383
:10186000F08095F0500A7582301214F7157680E8F2
:10187000D20EC3E5789402E433FA7014EA700EC312
:10188000E464808576F063F08095F04003300E16B6
:10189000E578247DF886028A821214F7E57824FD23
:1018A00050121576800E7402B57809300C067582D8
:1018B0002E1214F70578021844300519AA75C3E4EE
:1018C00064808AF063F08095F0500A7582201214CB
:1018D000F7157580E72285826B85836CE4F572F5D8
:1018E00073AA79AB7AAC7B8A828B838CF0120F8FD0
:1018F000FD74012AF579E43BF57A8C7BEDFA7003EF
:10190000021E7CBA25028003021E74C205C206C2F2
:1019100007C208C209C20AC20BC20CC202C203C279
:10192000047574007575007576FFAB79AC7AAD7B84
:101930008B828C838DF0120F8FFAA3AB82AC838BDA
:10194000798C7A8D7BBA25078A821214F780928A65
:1019500006BE3000402E8A06EE24C6402774FFB52E
:101960007613E57575F00AA4FEEA24D02EF575709D
:10197000BFD20680BBE57675F00AA4FEEA24D02E1D
:10198000F57680ACBA2E0A74FFB576A47576008021
:101990009F8A06BE6100400E8A06EE2485400753EA
:1019A00002DFD2018002C201BA20028075BA23038D
:1019B000021A31BA2A03021A36BA2B02805FBA2DF4
:1019C000028055BA4202805FBA4303021A7BBA44CE
:1019D00003021BB6BA4503021BD0BA4603021BCC56
:1019E000BA4703021BD4BA4903021BB6BA4C0280A1
:1019F0003BBA4E03021BD8BA4F03021BBDBA5003B9
:101A0000021B4FBA5303021A9FBA5503021BC2BAF4
:101A10005803021BC7021C02D205021930D207026A
:101A20001930D208021930D20A021930D20B021929
:101A300030D20C02193074FFB57620300A0BE57CE9
:101A400014F8887C8675021930E57C24FEF8887CC1
:101A50008606088607188E75021930300A0BE57C59
:101A600014F8887C8676021930E57C24FEF8887CA0
:101A70008606088607188E76021930300A0AE57C39
:101A800014F8887C8602800FE57C24FEF8887C862A
:101A900003088604188B028A821214F7021C07E5D9
:101AA0007C24FDF8887C86030886040886051818BF
:101AB0008B6D8C6E8D6F8B828C838DF0121FFDABC6
:101AC00082AC838B7774FFB5760385777620051D0E
:101AD000C3E57795755016E575C39577F575AB75C4
:101AE0001575EB60087582201214F780F1856D8200
:101AF000856E83856FF0120F8FFBFA6029AB761528
:101B000076C3E464808BF063F08095F050188A828D
:101B10001214F7AB6DAC6EAD6F0BBB00010C8B6D8F
:101B20008C6E8D6F80C7200503021C07C3E5779577
:101B3000754003021C07E575C39577F575AB751500
:101B400075EB7003021C077582201214F780EEE516
:101B50007C24FDF8887C860308860408860518180E
:101B60008B6D8C6E8D6FE56FFB30E7047A438013CD
:101B7000EB546060047A50800AEB30E6047A4980C6
:101B8000027A588A82C0021214F775823A1214F748
:101B90007582301214F77582781214F7D002BA49A0
:101BA00002800BBA50028006856E8212152A856D5E
:101BB0008212152A8051D20975740A804A757408F8
:101BC000804575740A8040757410803BD20280375E
:101BD000D2038033D204802FE57C24FDF8887C86F4
:101BE0000308860408860518188B6D8C6E8D6F8B24
:101BF000828C838DF0E572121E98A3E573121E98F5
:101C000080058A821214F720020620030330047034
:101C1000E57C24FCF8887C86030886040886050891
:101C200086061818188B6D8C6E8D6F8E70E56DE5BD
:101C30006EE56FE5708B828C838DF0EE121EDE7484
:101C4000FFB57603757606300427747F5570FB8BDD
:101C500071E571EB2BFB8B71E56F30E70674014585
:101C600071F571E57124684006749925714002D2BE
:101C7000033003061217F30218E11215800218E16F
:101C8000E57470030218E17B82300A2BE57C14F8BE
:101C9000887CE6FC3395E0FDFEFF8C6D8D6E8E6FCB
:101CA0008F7020095EAC6D7D007E007F008C6D8D95
:101CB0006E8E6F8F70804C300B1FE57C24FCF88893
:101CC0007C86040886050886060886071818188C7E
:101CD0006D8D6E8E6F8F70802AE57C24FEF8887C77
:101CE000860408860518ED3395E0FEFF8C6D8D6E39
:101CF0008E6F8F7020090CAC6DAD6E7E007F008EF4
:101D00006F8F70300C43E56D456E456F45706039DF
:101D10007408B5740C758230C0031214F7D00380B8
:101D2000287410B57423758230C0031214F7D003E1
:101D300030010C758278C0031214F7D003800A7545
:101D40008258C0031214F7D003300925AC6DAD6E74
:101D5000AE6FE570FF30E717C3E49CFCE49DFDE443
:101D60009EFEE49FFF8C6D8D6E8E6F8F708002C221
:101D700009757700D20D8B00757100C000121541F6
:101D8000D000200D0DE571C4FCE6FD4CF61888036B
:101D90008002A6710577B20DE56D456E456F457001
:101DA00070D68803E575700375750120061A200545
:101DB00017E57704FCC39575500E758220C0031299
:101DC00014F7D003157580E930090E75822DC00314
:101DD0001214F7D00315758024E577602030070EC4
:101DE00075822BC0031214F7D0031575800F3008CD
:101DF0000C758220C0031214F7D003157520051E40
:101E0000AC751575C3E5779C50273006047C30808F
:101E1000027C208C82C0031214F7D00380E2C3E559
:101E20007795755009E575C39577F57580037575D8
:101E3000008B00AB771577EB6022B20D200D0A08FE
:101E4000E6C4540FFB8B7180078603740F5BF5713A
:101E5000857182C000121511D00080D720050302C1
:101E600018E1AB751575EB70030218E1758220124D
:101E700014F780EE8A821214F70218E185728285C7
:101E8000738322AA82BA0A0810990280FB75990D01
:101E900010990280FB8A992220F71030F61188836E
:101EA000A88220F507F6A88375830022F280F7F058
:101EB00022FCABF0AA83A982749EF582C2D1EC30D9
:101EC000E716D2D1E9F42401F9EAF43400FAEBF48C
:101ED0003400FBECF43400FC1214390213EAC0E0C5
:101EE000F84582458345F07009F5F0FBFCFDFE02E4
:101EF0001FACE823A2F792E0F8A982AA83D2F7AB3D
:101F0000F07C007E07C3749798404074FF2EFE74E7
:101F10000A89F0A4F985F082740A8AF0A4FA85F09F
:101F200083740A8BF0A4FB740529F9EA3582FAEB75
:101F30003583FB740035F0FCC3EC13FCEB13FBEAB8
:101F400013FAE913F908EC70EF80BAE8C3947FF84C
:101F50008B838EF0E4FBFCFDFEFF08C3E933F9EA56
:101F600033FAE58333F583EB3BD4FBEC3CD4FCED57
:101F70003DD4FDEE3ED4FEEF3FD4FF602D05F0745E
:101F8000052BD4FBE43CD4FCE43DD4FDE43ED4FE7C
:101F9000E43FD4FF758204C3EF13FFEE13FEED138D
:101FA000FDEC13FCEB13FBD582EDD8AF787DD0E0D0
:101FB00020E704762B8002762D087906E7C4540FBB
:101FC0004430F608B90603762E08E7540F4430F67D
:101FD0000819B902E7764508E5F020E704762B807A
:101FE00004762DF4040875F00A844430F608E5F010
:101FF0004430F608E4F690007D75F04022AA82ABEA
:1020000083ACF07D007E008A828B838CF0120F8F70
:10201000FFA3AA82AB83EF60070DBD00EA0E80E745
:102020008D828E832200000000000000000000006E
:00000001FF
