:1000000002000375815912015FE582600302006FEF
:10001000780079007A007B007C007D00EC4D601C4C
:1000200088828983E493A3A882A9838A828B83F040
:10003000A3AA82AB831CBCFFE31D80E07582007520
:1000400083007C007D00EC4D600AE4F0A31CBCFF43
:10005000F51D80F27582007583007C007D00EC4DFB
:10006000600AE4F0A31CBCFFF51D80F21200F71239
:10007000024F80FE6368616E6E656C203020706593
:1000800072696F64286D73293A25352E33660A002C
:100090006368616E6E656C203020766F6C7461678A
:1000A0006528726D73293A25660A006368616E6E71
:1000B000656C203320706572696F64286D73293A0E
:1000C00025352E33660A006368616E6E656C2033D9
:1000D00020766F6C7461676528726D73293A2566A6
:1000E0000A007068617365202864656772656573CE
:1000F000293A2025660A00228582E0A2E792A1D251
:10010000A3A2A292F7C2A3A2E692A1D2A3A2A29214
:10011000F6C2A3A2E592A1D2A3A2A292F5C2A3A283
:10012000E492A1D2A3A2A292F4C2A3A2E392A1D28A
:10013000A3A2A292F3C2A3A2E292A1D2A3A2A292EC
:10014000F2C2A3A2E192A1D2A3A2A292F1C2A3A25F
:10015000E092A1D2A3A2A292F0C2A385F08222755E
:100160008E1175E60075E70075D60075D70075CE5F
:100170000075CF0075C60075C7004387807598521B
:10018000759B00759AF4759B1E75AE0075820022F2
:10019000AA82C28C5389F0438901EA24FA5006EA04
:1001A00024FBFA80027A018A1C751D00751E0075F9
:1001B0001F0090FFEA74FFF5F0120B64AA82AB8374
:1001C000C28D8B047D008C8C7B008A8AD28C308D12
:1001D000FD22AA82AB837C007D00C3EC9AED9B508C
:1001E0002B7E00BE0400501D7582FAC002C003C001
:1001F00004C005C006120190D006D005D004D0037B
:10020000D0020E80DE0CBC00D10D80CE22AA82C2AC
:10021000A0758201C0021200F8D002EAC454F0FABC
:1002200074804AF5821200F8AA8274035AFC7B009B
:10023000758200C003C0041200F8AA82D004D00363
:100240007D00EA2BFBED3CFCD2A08B828C832253F9
:1002500089F0438901C28D758A00758C0075820012
:1002600012020DAA82AB83C374029AE49B40EE751E
:10027000820012020DAA82AB83C3EA9404EB9400BD
:1002800040EDD28C7A007B00758200C002C0031260
:10029000020DAC82AD83D003D002C374029CE49DF6
:1002A000500C108D0280E10ABA00DD0B80DAC28C9E
:1002B0008A828B83120D4BAA82AB83ACF0FDC00205
:1002C000C003C004C00590000075F0807447120C94
:1002D0000EAA82AB83ACF0FDE58124FCF581858C10
:1002E00082C002C003C004C005120CB1AE82AF834D
:1002F000A8F0F9C006C007C000C00190000075F06A
:10030000807443120C0EAE82AF83A8F0F9E581240D
:10031000FCF581D005D004D003D002C006C007C0D0
:1003200000C0018A828B838CF0ED120CBCAA82ABD8
:1003300083ACF0FDE58124FCF581AE8A7F008E82DE
:100340008F83C002C003C004C005120D4BAE82AF44
:1003500083A8F0F9D005D004D003D002C006C007AE
:10036000C000C0018A828B838CF0ED120CBC8582A8
:100370002285832385F024F525E58124FCF581E49D
:10038000C0E0C0E0C0E07440C0E0852282852383E5
:100390008524F0E525120D5885822A85832B85F06A
:1003A0002CF52DE58124FCF581C28D758A00758CB4
:1003B0000075820012020DAA82AB83C374029AE414
:1003C0009B40EE75820012020DAA82AB83C3EA94B1
:1003D00004EB940040EDD28CE4F53AF53B853A828B
:1003E000853B83120D4BAC82AD83AEF0FFC004C0E1
:1003F00005C006C00790000075F0807447120C0E0F
:10040000AC82AD83AEF0FFE58124FCF581858C8262
:10041000C004C005C006C007120CB1A882A983AAF7
:10042000F0FBC000C001C002C00390000075F08066
:100430007443120C0EAA82AB83A8F0F9E58124FC68
:10044000F581D007D006D005D004C002C003C0009B
:10045000C0018C828D838EF0EF120CBCAA82AB831C
:10046000ACF0FDE58124FCF581AE8A7F008E828FA1
:1004700083C002C003C004C005120D4BAE82AF831F
:10048000A8F0F9D005D004D003D002C006C007C040
:1004900000C0018A828B838CF0ED120CBCAA82AB67
:1004A00083ACF0FDE58124FCF581C02AC02BC02C73
:1004B000C02D8A828B838CF0ED120BDEAA82E5813F
:1004C00024FCF581EA6011108D030203DD053AE496
:1004D000B53A02053B0203DDC28C75820012020DA3
:1004E000120BD2AA82AB83ACF0FDC002C003C004E1
:1004F000C00590126F75F0837440120C0EAA82AB87
:1005000083ACF0FDE58124FCF581E4C0E074C0C05B
:10051000E0747FC0E07444C0E08A828B838CF0ED8D
:10052000120D5885823E85833F85F040F541E58177
:1005300024FCF58174CDC0E074CCC0E074ACC0E0A4
:100540007446C0E08522828523838524F0E5251248
:100550000D58AE82AF83A8F0F9E58124FCF581C087
:1005600006C007C000C001900000E4F5F07440121E
:100570000C0E85822E85832F85F030F531E58124A0
:10058000FCF581C28D758A00758C0075820312029C
:100590000DAA82AB83C374029AE49B40EE7582037A
:1005A00012020DAA82AB83C3EA9404EB940040EDDF
:1005B000D28C7A007B00758203C002C00312020D48
:1005C000AC82AD83D003D002C374029CE49D500C76
:1005D000108D0280E10ABA00DD0B80DAD28C8A82AB
:1005E0008B83120D4BAA82AB83ACF0FDC002C0031B
:1005F000C004C00590000075F0807447120C0EAA6C
:1006000082AB83ACF0FDE58124FCF581858C82C052
:1006100002C003C004C005120CB1AE82AF83A8F0C3
:10062000F9C006C007C000C00190000075F08074DA
:1006300043120C0EAE82AF83A8F0F9E58124FCF5DD
:1006400081D005D004D003D002C006C007C000C0CE
:10065000018A828B838CF0ED120CBCAA82AB83AC36
:10066000F0FDE58124FCF581AE8A7F008E828F83C8
:10067000C002C003C004C005120D4BAE82AF83A8F8
:10068000F0F9D005D004D003D002C006C007C000E6
:10069000C0018A828B838CF0ED120CBC858226858A
:1006A000832785F028F529E58124FCF581E4C0E065
:1006B000C0E0C0E07440C0E085268285278385289D
:1006C000F0E529120D5885823685833785F038F597
:1006D00039E58124FCF581C28CC28D758A00758C48
:1006E0000075820312020DAA82AB83C374029AE4DE
:1006F0009B40EE75820312020DAA82AB83C3EA947B
:1007000004EB940040EDD28CE4F53CF53D853C8251
:10071000853D83120D4BAC82AD83AEF0FFC004C0AB
:1007200005C006C00790000075F0807447120C0EDB
:10073000AC82AD83AEF0FFE58124FCF581858C822F
:10074000C004C005C006C007120CB1A882A983AAC4
:10075000F0FBC000C001C002C00390000075F08033
:100760007443120C0EAA82AB83A8F0F9E58124FC35
:10077000F581D007D006D005D004C002C003C00068
:10078000C0018C828D838EF0EF120CBCAA82AB83E9
:10079000ACF0FDE58124FCF581AE8A7F008E828F6E
:1007A00083C002C003C004C005120D4BAE82AF83EC
:1007B000A8F0F9D005D004D003D002C006C007C00D
:1007C00000C0018A828B838CF0ED120CBCAA82AB34
:1007D00083ACF0FDE58124FCF581C036C037C0381C
:1007E000C0398A828B838CF0ED120BDEAA82E58100
:1007F00024FCF581EA6011108D0302070D053CE42D
:10080000B53C02053D02070DC28C75820312020D34
:10081000120BD2AA82AB83ACF0FDC002C003C004AD
:10082000C00590126F75F0837440120C0EAA82AB53
:1008300083ACF0FDE58124FCF581E4C0E074C0C028
:10084000E0747FC0E07444C0E08A828B838CF0ED5A
:10085000120D5885824285834385F044F545E58134
:1008600024FCF58174CDC0E074CCC0E074ACC0E071
:100870007446C0E08526828527838528F0E5291205
:100880000D58AE82AF83A8F0F9E58124FCF581C054
:1008900006C007C000C001900000E4F5F0744012EB
:1008A0000C0E85823285833385F034F535E581245D
:1008B000FCF581C28D758A00758C0075820012026C
:1008C0000DAE82AF83C374029EE49F40EE7582003A
:1008D00012020DAE82AF83C3EE9404EF940040ED9C
:1008E000D28C7E007F00758203C006C00712020D05
:1008F000A882A983D007D006C3740298E499500C4B
:10090000108D0280E10EBE00DD0F80DA758203C01B
:1009100006C00712020DA882A983D007D006C3E83B
:100920009404E99400500C108D0280E00EBE00DCAF
:100930000F80D9C28C8E828F83120D4BAE82AF8313
:10094000A8F0F9C006C007C000C00190000075F013
:10095000807447120C0EAE82AF83A8F0F9E58124B3
:10096000FCF581858C82C006C007C000C001120C56
:10097000B1AA82AB83ACF0FDC002C003C004C005C5
:1009800090000075F0807443120C0EAA82AB83AC09
:10099000F0FDE58124FCF581D001D000D007D00620
:1009A000C002C003C004C0058E828F8388F0E912A4
:1009B0000CBCAA82AB83ACF0FDE58124FCF581AED2
:1009C0008A7F008E828F83C002C003C004C00512DC
:1009D0000D4BAE82AF83A8F0F9D005D004D003D080
:1009E00002C006C007C000C0018A828B838CF0ED74
:1009F000120CBCAA82AB83ACF0FDE58124FCF5812E
:100A000074CDC0E074CCC0E074ACC0E07446C0E00B
:100A10008A828B838CF0ED120D58AA82AB83ACF0E6
:100A2000FDE58124FCF581C002C003C004C005C0FF
:100A30002EC02FC030C03190000075F0B474431246
:100A40000D58AE82AF83A8F0F9E58124FCF581D082
:100A500005D004D003D002C006C007C000C0018A80
:100A6000828B838CF0ED120C0EAA82AB83ACF0FD6E
:100A7000E58124FCF581C002C003C004C00574F305
:100A8000C0E07404C0E074B5C0E0743FC0E0853ECF
:100A900082853F838540F0E541120D588582468569
:100AA000834785F048F549E58124FCF58174F3C05E
:100AB000E07404C0E074B5C0E0743FC0E0854282D9
:100AC0008543838544F0E545120D58AE82AF83A877
:100AD000F0F9E58124FCF581C006C007C000C00123
:100AE000C02EC02FC030C0317474C0E07400C0E0AC
:100AF0007480C0E0120D2AE58124F9F581C046C05A
:100B000047C048C0497490C0E07400C0E07480C021
:100B1000E0120D2AE58124F9F581C032C033C034DA
:100B2000C03574ABC0E07400C0E07480C0E0120D4A
:100B30002AE58124F9F58174C7C0E07400C0E0742F
:100B400080C0E0120D2AE58124F9F58174E2C0E04D
:100B50007400C0E07480C0E0120D2AE58124F9F52C
:100B600081020255AAF0FBE582851CF0A4FCADF0E1
:100B7000E583851CF0A42DFDE435F0FEE582851D9E
:100B8000F0A42DFDE5F03EFEE433FFEA851CF0A461
:100B90002EFEE5F03FFFE583851DF0A42EFEE5F077
:100BA0003FFFE582851EF0A42EFEE5F03FFFEB85BA
:100BB0001CF0A42FFFEA851DF0A42FFFE583851EFE
:100BC000F0A42FFFE582851FF0A42F8EF08D838C7B
:100BD0008222E4AC83AB82FAF9748E020E80FFA805
:100BE000811818120EA8D2D133E6400730E70B75F2
:100BF00082002220E70675820122C2D1120E8AE904
:100C00007003F5822220D101B3E433F58222120F62
:100C100055BC0003020EF4EF60FA30D502B2D1E504
:100C200083B4FF03020F0AE582B4FF03020F0A2513
:100C30008340072482400B020EF4248314500302E5
:100C40000F0AF582EA8DF0A4A8F0EA8EF0A428F845
:100C5000E435F0F9EB8DF0A428E935F0F9E433CA76
:100C60008FF0A429F9EA35F0FAEBF88EF0A429F90F
:100C7000EA35F0FAE433FBEC8DF0A429F9EA35F01B
:100C8000FAE43BFBE88FF0A42AFAEB35F0FBE433FF
:100C9000CCFD8EF0A42AFAEB35F0FBE43CFCED8FA2
:100CA000F0A42BFBEC35F0FC20E703120F22020E20
:100CB000D3E4AC82FBFAF97486020E80120F5579E8
:100CC00000E583B58202800D5003120F83E583C3D4
:100CD0009582120F9DE5D0C465D020E117EA2DFA68
:100CE000EB3EFBEC3FFC50097401120F9DEC44807D
:100CF000FC020ED3C3EA9DFAEB9EFBEC9FFC500F67
:100D0000C3E499F9E49AFAE49BFBE49CFCB2D112A7
:100D10000F22020ED302196C85821885831985F083
:100D20001A85091B900D150213BFC008858108E5BF
:100D30000824FBF51BE50824FBF88618088619082B
:100D4000861A900D151213BFD00822AC83AB827A9D
:100D5000007900748E02198A120F5530D502B2D173
:100D6000BF0009BC0003020F17020F0ABC000302F8
:100D70000EF4E583B4FF0BE582B4FF03020F170204
:100D80000EF4E582B4FF03020F0AC39583500724D3
:100D90007F400B020EF42480145003020F0AC0E0BF
:100DA000E4CCCBCAF98D1C8E1D8F1EEF54F0C4F518
:100DB0001F758306851FF0EB84F582E9C4F9EAC448
:100DC000FAEBC4FBEC540FC47803D6FC18EBD6FB4B
:100DD00018EAD6FA8582F0EDA4A8F0FD8582F0EE3F
:100DE000A428FEE435F0F88582F0EFA428FFE4356E
:100DF000F0F8E99DF9EA9EFAEB9FFBEC98FCAD1C3C
:100E0000AE1DAF1E30E7101582E92DF9EA3EFAEB70
:100E10003FFBE43CFC80EDC082D58398C3E933F905
:100E2000EA33FAEB33FBEC33FCC3E99DEA9EEB9F1C
:100E3000EC9400B3E413F9D002D0E0C44AFAD00332
:100E4000D0E0C44BFBD004D0E0F5F0540FC44CFC10
:100E5000D082158230F40FD3EC13FCEB13FBEA13B2
:100E6000FAE913F90582E930E70A74012AFAE43B4A
:100E7000FBE43CFC020EEBFCABF0AA83A982749E5F
:100E8000C2D1F582120F22020ED37901AA82E68F17
:100E900082B5821318E6B5F00E18E6B5830918E698
:100EA0008A82B58202790022B4800FE5F0700AE5EB
:100EB000837006E58270027F00EFB6801518B600D9
:100EC0001018B6000B18B6000608080876002208AD
:100ED000080822B98003EA13B34010EA2401FAE4B7
:100EE0003BFBE43CFC50047C800582BC000EBB0054
:100EF0000BBA0008E4F5F0F583F58222A2D1E58271
:100F0000138CF092F78B838A8222E4F583F5827545
:100F1000F080F4A2D11322E4F583F58275F0C07459
:100F20007F227804EC7011E58224F8500AF582E4FF
:100F3000C9CACBFCD8EF22EC7820058220E713D574
:100F4000820122C3E933F9EA33FAEB33FBEC33FCD9
:100F5000D8EA158222AA82AB83A2F73392D160022B
:100F6000D2F7F582ACF0E58124F9F8E6FD08E6FE5B
:100F70000886F008E6A2F73392D56002D2F7F5832F
:100F8000AFF022E582C583F582A2D133A2D592D1FA
:100F90001392D5ECCFFCEBCEFBEACDFA226040F801
:100FA0002582500274FFF582E824F8501ECCCBCA8B
:100FB000F9E4CC24F85014CBCAF9E4CB24F8500B54
:100FC000CAF9E4CA24F8500379002224086010F812
:100FD000C3EC13FCEB13FBEA13FAE913F9D8F12283
:100FE000AA8274F1C0E0740FC0E0C00AC00B8A820C
:100FF000220511E4B51102051222AA8274302AFAE0
:1010000024C6500A74072AFA3000034302208A8259
:10101000020FE0E582FAC4540FF582C002120FFA03
:10102000D002740F5AF582020FFAAA0CAB0DAC0E67
:10103000AD0FAE10751720EE2EFEED235401FF42CA
:1010400006EA2AFAEB33FBEC33FCED33FDC3EE95F5
:10105000134008EEC39513FE430201D517D98A0C3D
:101060008B0D8C0E8D0F8E10227856E624D075F0E5
:101070000AA4FA7857E624D02AFA78558603BB2DBD
:1010800004C3E49AFA751301C3E464808AF063F040
:101090008095F050297517038A0374F62517401CB4
:1010A0000513E51714244AF8E517244AF98704A61E
:1010B00004772E1BEBFA6004051780DE8B02EA3002
:1010C000E70D784B8603784CA603784B762E0AE51D
:1010D00015600AE51504FB2513F5138005300B0296
:1010E0000513784A8603E4BB2D0104FB7006200635
:1010F0000330070205133004030211B0300557EB2B
:10110000600C75822DC002120FE0D002801C3006E8
:101110000C75822BC002120FE0D002800D30070A3E
:10112000758220C002120FE0D002784B8604BC2EDC
:101130000C758230C002120FE0D0021514AC1415E9
:1011400014C3E5139C40030211F4758230C00212EF
:101150000FE0D00280E7AC141514C3E5139C500CCB
:10116000758220C002120FE0D00280EA784A86041D
:10117000BC2D0C75822DC002120FE0D002801C30F5
:10118000060C75822BC002120FE0D002800D3007D2
:101190000A758220C002120FE0D002784B8604BC90
:1011A0002E52758230C002120FE0D0021514804416
:1011B000EB600E75822DC002120FE0D00215148074
:1011C0002030060E75822BC002120FE0D0021514DB
:1011D000800F30070C758220C002120FE0D002157C
:1011E00014784B8603BB2E0C758230C002120FE0C0
:1011F000D0021514751701C20DE517244AF88603AD
:10120000BB45030212B1BB2E348A03C3E464808B56
:10121000F063F08095F0500F758230C003120FE03C
:10122000D0031B8B0280E48B02D20DE515703820B1
:101230000B030212B175822E120FE08074300D275D
:101240008A03EB30E71FC3E464808515F063F08008
:1012500095F0500C758230C003120FE0D0031515C5
:101260000B8B0280DD8B02300D0EC3E4648085158C
:10127000F063F08095F05021E517244AF886038B3F
:1012800082C002120FE0D002300D0EE517244AF89A
:101290008603BB2E02800215151514C3E4648085F5
:1012A00015F063F08095F04003200D05051702113D
:1012B000F9C3E464808515F063F08095F0500A75F9
:1012C0008230120FE0151580E830040FAA141514AF
:1012D000EA6008758220120FE080F122E5157003A4
:1012E000300B0D74072515FAE514C39AF514800622
:1012F000E51424FAF514751700784A8602BA2B0F04
:1013000020060C784A762020070575170105142061
:101310000419AA14C3E464808AF063F08095F05045
:101320000A758220120FE0151480E7C20DE517241C
:101330004AF88602BA00028069BA451F3000027678
:1013400065C3E464808515F063F08095F0500A75FC
:101350008230120FE0151580E8D20DC3E517940214
:10136000E433FA7014EA700EC3E464808515F06308
:10137000F08095F04003300D16E517244AF88602F8
:101380008A82120FE0E51724FD50121515800E74A5
:1013900002B51709300B0675822E120FE0051702F1
:1013A000132D300419AA14C3E464808AF063F0801A
:1013B00095F0500A758220120FE0151480E72285FF
:1013C000820A85830BE4F511F512AA18AB19AC1A41
:1013D0008A828B838CF01219AEFD74012AF518E411
:1013E0003BF5198C1AEDFA7003021965BA250280D3
:1013F0000302195DC204C205C206C207C208C209BF
:10140000C20AC20BC201C202C203751300751400E6
:101410007515FFAB18AC19AD1A8B828C838DF01249
:1014200019AEFAA3AB82AC838B188C198D1ABA252E
:10143000078A82120FE080928A06BE3000402E8A10
:1014400006EE24C6402774FFB51513E51475F00A9F
:10145000A4FEEA24D02EF51470BFD20580BBE5159A
:1014600075F00AA4FEEA24D02EF51580ACBA2E0A37
:1014700074FFB515A4751500809F8A06BE610040F3
:101480000E8A06EE248540075302DFD2008002C296
:1014900000BA20028075BA230302151ABA2A030281
:1014A000151FBA2B02805FBA2D028055BA42028006
:1014B0005FBA4303021564BA440302169FBA450398
:1014C0000216B9BA46030216B5BA47030216BDBAE8
:1014D000490302169FBA4C02803BBA4E030216C162
:1014E000BA4F030216A6BA5003021638BA530302C3
:1014F0001588BA55030216ABBA58030216B0021685
:10150000EBD204021419D206021419D207021419DC
:10151000D209021419D20A021419D20B0214197436
:10152000FFB5152030090BE51B14F8881B86140243
:101530001419E51B24FEF8881B8606088607188EFA
:101540001402141930090BE51B14F8881B861502C8
:101550001419E51B24FEF8881B8606088607188EDA
:101560001502141930090AE51B14F8881B8602803D
:101570000FE51B24FEF8881B8603088604188B02DF
:101580008A82120FE00216F0E51B24FDF8881B8604
:101590000308860408860518188B0C8C0D8D0E8B9D
:1015A000828C838DF0121B02AB82AC838B1674FF8E
:1015B000B5150385161520041DC3E51695145016A0
:1015C000E514C39516F514AB141514EB6008758279
:1015D00020120FE080F1850C82850D83850EF012BC
:1015E00019AEFBFA6029AB151515C3E464808BF0C6
:1015F00063F08095F050188A82120FE0AB0CAC0DAE
:10160000AD0E0BBB00010C8B0C8C0D8D0E80C7201A
:1016100004030216F0C3E516951440030216F0E524
:1016200014C39516F514AB141514EB70030216F0E1
:10163000758220120FE080EEE51B24FDF8881B86E2
:101640000308860408860518188B0C8C0D8D0EE592
:101650000EFB30E7047A438013EB546060047A5049
:10166000800AEB30E6047A4980027A588A82C00206
:10167000120FE075823A120FE0758230120FE0759A
:101680008278120FE0D002BA4902800BBA50028071
:1016900006850D82121013850C821210138051D210
:1016A0000875130A804A751308804575130A80402F
:1016B000751310803BD2018037D2028033D2038071
:1016C0002FE51B24FDF8881B860308860408860581
:1016D00018188B0C8C0D8D0E8B828C838DF0E51180
:1016E000121AE9A3E512121AE980058A82120FE0A4
:1016F000200106200203300370E51B24FCF8881B40
:1017000086030886040886050886061818188B0CB8
:101710008C0D8D0E8E0FE50CE50DE50EE50F8B8221
:101720008C838DF0EE1219CA74FFB515037515067A
:10173000300327747F550FFB8B10E510EB2BFB8BD1
:1017400010E50E30E70674014510F510E510246829
:101750004006749925104002D2023002061212DCB3
:101760000213CA1210690213CAE51370030213CAE6
:101770007B4F30092BE51B14F8881BE6FC3395E002
:10178000FDFEFF8C0C8D0D8E0E8F0F20085EAC0CB5
:101790007D007E007F008C0C8D0D8E0E8F0F804C97
:1017A000300A1FE51B24FCF8881B86040886050800
:1017B00086060886071818188C0C8D0D8E0E8F0F54
:1017C000802AE51B24FEF8881B860408860518ED90
:1017D0003395E0FEFF8C0C8D0D8E0E8F0F20080CC4
:1017E000AC0CAD0D7E007F008E0E8F0F300B43E5ED
:1017F0000C450D450E450F60397408B5130C758204
:1018000030C003120FE0D00380287410B513237585
:101810008230C003120FE0D00330000C758278C014
:1018200003120FE0D003800A758258C003120FE044
:10183000D003300825AC0CAD0DAE0EE50FFF30E740
:1018400017C3E49CFCE49DFDE49EFEE49FFF8C0C2A
:101850008D0D8E0E8F0F8002C208751600D20C8B74
:1018600000751000C00012102AD000200C0DE510E9
:10187000C4FCE6FD4CF61888038002A6100516B2DB
:101880000CE50C450D450E450F70D68803E5147028
:101890000375140120051A200417E51604FCC395EE
:1018A00014500E758220C003120FE0D0031514806F
:1018B000E930080E75822DC003120FE0D003151415
:1018C0008024E516602030060E75822BC003120FAF
:1018D000E0D0031514800F30070C758220C003126E
:1018E0000FE0D003151420041EAC141514C3E51624
:1018F0009C50273005047C3080027C208C82C00301
:10190000120FE0D00380E2C3E51695145009E514E8
:10191000C39516F51480037514008B00AB161516CD
:10192000EB6022B20C200C0A08E6C4540FFB8B10AB
:1019300080078603740F5BF510851082C000120FBC
:10194000FAD00080D72004030213CAAB141514EB9D
:1019500070030213CA758220120FE080EE8A821291
:101960000FE00213CA85118285128322AA82BA0A65
:101970000810990280FB75990D10990280FB8A99D5
:1019800022FCABF0AA83A982749EF582C2D1EC300E
:10199000E716D2D1E9F42401F9EAF43400FAEBF4C1
:1019A0003400FBECF43400FC120F22020ED320F7BB
:1019B0001430F6148883A88220F507E6A88375837F
:1019C0000022E280F7E49322E022C0E0F84582455D
:1019D0008345F07009F5F0FBFCFDFE021A98E82340
:1019E000A2F792E0F8A982AA83D2F7ABF07C007E3E
:1019F00007C3749798404074FF2EFE740A89F0A4C0
:101A0000F985F082740A8AF0A4FA85F083740A8B4F
:101A1000F0A4FB740529F9EA3582FAEB3583FB74EF
:101A20000035F0FCC3EC13FCEB13FBEA13FAE913EB
:101A3000F908EC70EF80BAE8C3947FF88B838EF0DE
:101A4000E4FBFCFDFEFF08C3E933F9EA33FAE58362
:101A500033F583EB3BD4FBEC3CD4FCED3DD4FDEE05
:101A60003ED4FEEF3FD4FF602D05F074052BD4FB70
:101A7000E43CD4FCE43DD4FDE43ED4FEE43FD4FF9A
:101A8000758204C3EF13FFEE13FEED13FDEC13FCA0
:101A9000EB13FBD582EDD8AF784AD0E020E704768F
:101AA0002B8002762D087906E7C4540F4430F608DF
:101AB000B90603762E08E7540F4430F60819B90228
:101AC000E7764508E5F020E704762B8004762DF4D0
:101AD000040875F00A844430F608E5F04430F6084E
:101AE000E4F690004A75F0402220F71030F6118895
:101AF00083A88220F507F6A88375830022F280F779
:101B0000F022AA82AB83ACF07D007E008A828B83B8
:101B10008CF01219AEFFA3AA82AB83EF60070DBD54
:101B200000EA0E80E78D828E832200000000000014
:00000001FF
