:0300000002039167
:0100030032CA
:03000B0002011CD3
:0100130032BA
:01001B0032B2
:0100230032AA
:03002B0002013897
:10002E00C00078B10000D8FCD00022C000C0017919
:10003E002D78A6D8FED9FADAF6D001D00022D2B3A6
:10004E0012002EC2B322A2E792B7A2E692B6A2E5A2
:10005E0092B5A2E492B412004C12002EA2E392B713
:10006E00A2E292B6A2E192B5A2E092B412004C22A4
:10007E00D2B2020054C2B2020054C2B374331200A0
:10008E008374331200837432120083742812008337
:10009E00740C1200837401120083C0027A021200E3
:1000AE0039D00222E493600612007EA380F6224429
:1000BE00404480020083C0E0E8C4540F4430120074
:1000CE007EE8540F443012007ED0E02254696D65F4
:1000DE0020202078783A78783A78787800416C61E8
:1000EE00726D2078783A787820207878006F6E20BC
:1000FE00006F666600E58954F04401F589758CEA57
:10010E00758AE875F4EA75F2E8C2A9D28C22B2912A
:10011E003275C80075CD5375CC3475CB5375CA3452
:10012E00E4F530F531D2ADD2CA22C2CFB290C0E0E2
:10013E00C0D00530E530700F0531800BE4F530F599
:10014E0031E53224018010E530B4F479E531B401A3
:10015E0074D200B28C80E5D4F532C0E0740E141265
:10016E0000BFD0E0C000A8321200C4D000B4605569
:10017E007400D4F532D203E503B46013C0E0740EFC
:10018E00141200BFD0E0C000A8321200C4D000E5A7
:10019E00342401D4F534C0E0740B141200BFD0E047
:1001AE00C000A8341200C4D000B46019753400C069
:1001BE00E0740B141200BFD0E0C000A8341200C4CB
:1001CE00D0000201D8D0D0D0E032E5352401D4F5EC
:1001DE0035C0E07408141200BFD0E0C000A835127C
:1001EE0000C4D000B4122EB204200445C0E074083E
:1001FE00141200BFD0E0C000A8351200C4D000C059
:10020E00E07410141200BFD0E0C0E0744112007E02
:10021E00D0E0020223B413AD753501C0E0740814AA
:10022E001200BFD0E0C000A8351200C4D0000201F9
:10023E0055C0E07410141200BFD0E0C0E07450122C
:10024E00007ED0E0C0E07408141200BFD0E0C00001
:10025E00A8351200C4D000020223B20212014A22B3
:10026E0012019D221201D822200521C2A9C0E074DC
:10027E000E141200BDD0E0C083C082C0E09000FF1B
:10028E001200B2D0E0D082D0830203F1C0E0740E2F
:10029E00141200BDD0E0C083C082C0E09000FB12FB
:1002AE0000B2D0E0D082D0830203F1C0E0740C140F
:1002BE001200BDD0E0C0E0745012007ED0E0020308
:1002CE002D208677C0027A32120039D00220866B3A
:1002DE003086FDE5362401D4F536C0E074071412DD
:1002EE0000BDD0E0C000A8361200C4D000B4122F5A
:1002FE00B2052005B6C0E0740C141200BDD0E0C0EB
:10030E00E0744112007ED0E0801520A4B4C0027AC1
:10031E0032120039D00220A4A830A4FDB20622B4B5
:10032E0013E8753601C0E07407141200BDD0E0C0AA
:10033E0000A8361200C4D0000203182083CCC002DD
:10034E007A32120039D0022083C03083FDE5372483
:10035E0001D4F537C0E0740A141200BDD0E0C0001D
:10036E00A8371200C4D000B460A0753700C0E07486
:10037E000A141200BDD0E0C000A8371200C4D0008D
:10038E0002031875817F12010312011F75E60075B5
:10039E00E700D2AF120088C0E07401141200BFD083
:1003AE00E0C083C082C0E09000DA1200B2D0E0D08C
:1003BE0082D083C0E07401141200BDD0E0C083C0AF
:1003CE0082C0E09000EB1200B2D0E0D082D083D297
:1003DE00007532007534007535117536107537009D
:1003EE00020423208046C0027A32120039D0022045
:1003FE00803A3080FD12026802043AD2A902047ECD
:10040E00E535D4B5366AE534D4B53764E504D4B5EC
:10041E0005E902047E20C5CBC0027A32120039D023
:10042E000220C5BF30C5FDB205020276208312C080
:10043E00027A32120039D0022083063083FD120276
:10044E006E208612C0027A32120039D00220860641
:10045E003086FD12027220A412C0027A32120039C6
:10046E00D00220A40630A4FD1203182005928000AD
:10047E003000A2C200C0E0740E141200BFD0E0C063
:10048E0000A8321200C4D000C0E07408141200BFDD
:10049E00D0E0C000A8351200C4D000C0E0740B1428
:1004AE001200BFD0E0C000A8341200C4D000C0E0DB
:1004BE007407141200BDD0E0C000A8361200C4D0DC
:1004CE0000C0E0740A141200BDD0E0C000A83712BC
:0704DE0000C4D0000204235A
:00000001FF
