:1000000002000375813112010EE582600302006F68
:10001000780079007A007B007C007D00EC4D601C4C
:1000200088828983E493A3A882A9838A828B83F040
:10003000A3AA82AB831CBCFFE31D80E07582007520
:1000400083007C007D00EC4D600AE4F0A31CBCFF43
:10005000F51D80F27582007583007C007D00EC4DFB
:10006000600AE4F0A31CBCFFF51D80F21200A6128A
:10007000020480FE0A0A415438394C503531527816
:1000800032205350492041444320746573742070DA
:10009000726F6772616D2E0A005625643D25352EFC
:1000A000336620000D00228582E0A2E792A1D2A350
:1000B000A2A292F7C2A3A2E692A1D2A3A2A292F612
:1000C000C2A3A2E592A1D2A3A2A292F5C2A3A2E4E6
:1000D00092A1D2A3A2A292F4C2A3A2E392A1D2A31C
:1000E000A2A292F3C2A3A2E292A1D2A3A2A292F2EE
:1000F000C2A3A2E192A1D2A3A2A292F1C2A3A2E0C2
:1001000092A1D2A3A2A292F0C2A385F08222758E00
:100110001175E60075E70075D60075D70075CE003D
:1001200075CF0075C60075C700C2A0C2A3D2A24396
:100130008780759852759B00759AF4759B1E75AEF5
:100140000075820022AA82C28C5389F0438901EA99
:1001500024FA5006EA24FBFA80027A018A1C751DF3
:1001600000751E00751F0090FFEA74FFF5F0120283
:10017000C7AA82AB83C28D8B047D008C8C7B008AE6
:100180008AD28C308DFD22AA82AB837C007D00C395
:10019000EC9AED9B502B7E00BE0400501D7582FA38
:1001A000C002C003C004C005C006120145D006D07D
:1001B00005D004D003D0020E80DE0CBC00D10D802F
:1001C000CE22AA82C2A0758201C0021200A7D0026C
:1001D000EAC454F0FA74804AF5821200A7AA827425
:1001E000035AFC7B00758200C003C0041200A7AA5A
:1001F00082D004D0037D00EA2BFBED3CFCD2A08B27
:10020000828C83229001F41201877474C0E0740020
:10021000C0E07480C0E01203F91581158115817A60
:1002200000BA080040030202AF8A82C0021201C273
:10023000120335AB82AC83ADF0FEC003C004C00531
:10024000C00690126F75F0837440120341AB82AC0C
:1002500083ADF0FEE58124FCF581E4C0E074C0C00C
:10026000E0747FC0E07444C0E08B828C838DF0EE3C
:1002700012041AAB82AC83ADF0FEE58124FCF5815B
:10028000D0028A077800C002C003C004C005C006BF
:10029000C007C0007499C0E07400C0E07480C0E082
:1002A0001203F9E58124F7F581D0020A02022174D4
:1002B000A4C0E07400C0E07480C0E01203F91581AE
:1002C0001581158102021FAAF0FBE582851CF0A4AE
:1002D000FCADF0E583851CF0A42DFDE435F0FEE5D2
:1002E00082851DF0A42DFDE5F03EFEE433FFEA8596
:1002F0001CF0A42EFEE5F03FFFE583851DF0A42E43
:10030000FEE5F03FFFE582851EF0A42EFEE5F03FFE
:10031000FFEB851CF0A42FFFEA851DF0A42FFFE55D
:1003200083851EF0A42FFFE582851FF0A42F8EF099
:100330008D838C8222E4AC83AB82FAF9748E020541
:10034000421205CEBC000302056DEF60FA30D50203
:10035000B2D1E583B4FF03020583E582B4FF030253
:100360000583258340072482400B02056D248314F6
:100370005003020583F582EA8DF0A4A8F0EA8EF01E
:10038000A428F8E435F0F9EB8DF0A428E935F0F96C
:10039000E433CA8FF0A429F9EA35F0FAEBF88EF0CD
:1003A000A429F9EA35F0FAE433FBEC8DF0A429F93D
:1003B000EA35F0FAE43BFBE88FF0A42AFAEB35F0DB
:1003C000FBE433CCFD8EF0A42AFAEB35F0FBE43CE1
:1003D000FCED8FF0A42BFBEC35F0FC20E7031205BD
:1003E0009B02054C020F8885821885831985F01AB7
:1003F00085091B9003E40209DBC008858108E50834
:1004000024FBF51BE50824FBF886180886190886E6
:100410001A9003E41209DBD008221205CE30D5026F
:10042000B2D1BF0009BC0003020590020583BC00E5
:100430000302056DE583B4FF0BE582B4FF030205FB
:100440009002056DE582B4FF03020583C3958350D6
:1004500007247F400B02056D24801450030205839E
:10046000C0E0E4CCCBCAF98D1C8E1D8F1EEF54F07A
:10047000C4F51F758306851FF0EB84F582E9C4F986
:10048000EAC4FAEBC4FBEC540FC47803D6FC18EBB7
:10049000D6FB18EAD6FA8582F0EDA4A8F0FD858295
:1004A000F0EEA428FEE435F0F88582F0EFA428FFF2
:1004B000E435F0F8E99DF9EA9EFAEB9FFBEC98FC35
:1004C000AD1CAE1DAF1E30E7101582E92DF9EA3ED6
:1004D000FAEB3FFBE43CFC80EDC082D58398C3E996
:1004E00033F9EA33FAEB33FBEC33FCC3E99DEA9EC4
:1004F000EB9FEC9400B3E413F9D002D0E0C44AFAC5
:10050000D003D0E0C44BFBD004D0E0F5F0540FC4CE
:100510004CFCD082158230F40FD3EC13FCEB13FBB0
:10052000EA13FAE913F90582E930E70A74012AFAB5
:10053000E43BFBE43CFC020564FCABF0AA83A9822B
:10054000749EC2D1F58212059B02054CB98003EA64
:1005500013B34010EA2401FAE43BFBE43CFC5004F2
:100560007C800582BC000EBB000BBA0008E4F5F0ED
:10057000F583F58222A2D1E582138CF092F78B836A
:100580008A8222E4F583F58275F080F4A2D11322E9
:10059000E4F583F58275F0C0747F227804EC701165
:1005A000E58224F8500AF582E4C9CACBFCD8EF22D0
:1005B000EC7820058220E713D5820122C3E933F9C4
:1005C000EA33FAEB33FBEC33FCD8EA158222AA8239
:1005D000AB83A2F73392D16002D2F7F582ACF0E59B
:1005E0008124F9F8E6FD08E6FE0886F008E6A2F7A1
:1005F0003392D56002D2F7F583AFF022AA82740D50
:10060000C0E07406C0E0C00AC00B8A82220511E473
:10061000B51102051222AA8274302AFA24C6500AA1
:1006200074072AFA3000034302208A820205FCE59F
:1006300082FAC4540FF582C002120616D002740F5B
:100640005AF582020616AA0CAB0DAC0EAD0FAE1019
:10065000751720EE2EFEED235401FF4206EA2AFA1A
:10066000EB33FBEC33FCED33FDC3EE95134008EEAA
:10067000C39513FE430201D517D98A0C8B0D8C0E3E
:100680008D0F8E1022782EE624D075F00AA4FA7809
:100690002FE624D02AFA782D8603BB2D04C3E49AD2
:1006A000FA751301C3E464808AF063F08095F0501A
:1006B000297517038A0374F62517401C0513E517DF
:1006C000142422F8E5172422F98704A604772E1BA8
:1006D000EBFA6004051780DE8B02EA30E70D782321
:1006E00086037824A6037823762E0AE515600AE5AA
:1006F0001504FB2513F5138005300B020513782232
:100700008603E4BB2D0104FB7006200603300702BC
:1007100005133004030207CC300557EB600C7582DB
:100720002DC0021205FCD002801C30060C75822BF5
:10073000C0021205FCD002800D30070A758220C06D
:10074000021205FCD00278238604BC2E0C75823080
:10075000C0021205FCD0021514AC141514C3E51325
:100760009C4003020810758230C0021205FCD002C2
:1007700080E7AC141514C3E5139C500C758220C09F
:10078000021205FCD00280EA78228604BC2D0C758A
:10079000822DC0021205FCD002801C30060C75822E
:1007A0002BC0021205FCD002800D30070A75822092
:1007B000C0021205FCD00278238604BC2E5275823A
:1007C00030C0021205FCD00215148044EB600E7597
:1007D000822DC0021205FCD0021514802030060EB6
:1007E00075822BC0021205FCD0021514800F300751
:1007F0000C758220C0021205FCD0021514782386E5
:1008000003BB2E0C758230C0021205FCD0021514F9
:10081000751701C20DE5172422F88603BB450302B4
:1008200008CDBB2E348A03C3E464808BF063F08070
:1008300095F0500F758230C0031205FCD0031B8B5E
:100840000280E48B02D20DE5157038200B030208FC
:10085000CD75822E1205FC8074300D278A03EB3093
:10086000E71FC3E464808515F063F08095F0500CB9
:10087000758230C0031205FCD00315150B8B028066
:10088000DD8B02300D0EC3E464808515F063F080CB
:1008900095F05021E5172422F886038B82C00212BE
:1008A00005FCD002300D0EE5172422F88603BB2E7E
:1008B00002800215151514C3E464808515F063F0F9
:1008C0008095F04003200D050517020815C3E46468
:1008D000808515F063F08095F0500A75823012051E
:1008E000FC151580E830040FAA141514EA60087589
:1008F00082201205FC80F122E5157003300B0D7487
:10090000072515FAE514C39AF5148006E51424FAB0
:10091000F51475170078228602BA2B0F20060C7882
:100920002276202007057517010514200419AA1442
:10093000C3E464808AF063F08095F0500A758220E9
:100940001205FC151480E7C20DE5172422F8860273
:10095000BA00028069BA451F3000027665C3E464BC
:10096000808515F063F08095F0500A75823012058D
:10097000FC151580E8D20DC3E5179402E433FA7034
:1009800014EA700EC3E464808515F063F08095F07E
:100990004003300D16E5172422F886028A821205DC
:1009A000FCE51724FD50121515800E7402B51709C9
:1009B000300B0675822E1205FC051702094930041A
:1009C00019AA14C3E464808AF063F08095F0500A99
:1009D0007582201205FC151480E72285820A858322
:1009E0000BE4F511F512AA18AB19AC1A8A828B83A5
:1009F0008CF0120F9DFD74012AF518E43BF5198C5B
:100A00001AEDFA7003020F81BA25028003020F79F2
:100A1000C204C205C206C207C208C209C20AC20B8A
:100A2000C201C202C2037513007514007515FFAB35
:100A300018AC19AD1A8B828C838DF0120F9DFAA31E
:100A4000AB82AC838B188C198D1ABA25078A821257
:100A500005FC80928A06BE3000402E8A06EE24C62F
:100A6000402774FFB51513E51475F00AA4FEEA24B7
:100A7000D02EF51470BFD20580BBE51575F00AA421
:100A8000FEEA24D02EF51580ACBA2E0A74FFB515F7
:100A9000A4751500809F8A06BE6100400E8A06EE8E
:100AA000248540075302DFD2008002C200BA200230
:100AB0008075BA2303020B36BA2A03020B3BBA2B0A
:100AC00002805FBA2D028055BA4202805FBA4303AA
:100AD000020B80BA4403020CBBBA4503020CD5BA20
:100AE0004603020CD1BA4703020CD9BA4903020CDF
:100AF000BBBA4C02803BBA4E03020CDDBA4F030274
:100B00000CC2BA5003020C54BA5303020BA4BA55D8
:100B100003020CC7BA5803020CCC020D07D2040220
:100B20000A35D206020A35D207020A35D209020A6C
:100B300035D20A020A35D20B020A3574FFB51520E8
:100B400030090BE51B14F8881B8614020A35E51BD7
:100B500024FEF8881B8606088607188E14020A35BC
:100B600030090BE51B14F8881B8615020A35E51BB6
:100B700024FEF8881B8606088607188E15020A359B
:100B800030090AE51B14F8881B8602800FE51B2438
:100B9000FEF8881B8603088604188B028A821205D9
:100BA000FC020D0CE51B24FDF8881B860308860457
:100BB00008860518188B0C8C0D8D0E8B828C838DFE
:100BC000F01210F1AB82AC838B1674FFB515038560
:100BD000161520041DC3E51695145016E514C3958B
:100BE00016F514AB141514EB60087582201205FC81
:100BF00080F1850C82850D83850EF0120F9DFBFA26
:100C00006029AB151515C3E464808BF063F0809503
:100C1000F050188A821205FCAB0CAC0DAD0E0BBB6C
:100C200000010C8B0C8C0D8D0E80C7200403020D6F
:100C30000CC3E51695144003020D0CE514C395167C
:100C4000F514AB141514EB7003020D0C7582201211
:100C500005FC80EEE51B24FDF8881B86030886044E
:100C600008860518188B0C8C0D8D0EE50EFB30E7F1
:100C7000047A438013EB546060047A50800AEB30AE
:100C8000E6047A4980027A588A82C0021205FC750D
:100C9000823A1205FC7582301205FC7582781205C5
:100CA000FCD002BA4902800BBA50028006850D8240
:100CB00012062F850C8212062F8051D20875130A56
:100CC000804A751308804575130A8040751310809B
:100CD0003BD2018037D2028033D203802FE51B2420
:100CE000FDF8881B860308860408860518188B0CF7
:100CF0008C0D8D0E8B828C838DF0E5111210D8A394
:100D0000E5121210D880058A821205FC2001062007
:100D10000203300370E51B24FCF8881B8603088659
:100D2000040886050886061818188B0C8C0D8D0E85
:100D30008E0FE50CE50DE50EE50F8B828C838DF0B3
:100D4000EE120FB974FFB51503751506300327743D
:100D50007F550FFB8B10E510EB2BFB8B10E50E3056
:100D6000E70674014510F510E510246840067499F3
:100D700025104002D2023002061208F80209E612DB
:100D800006850209E6E51370030209E67B273009B0
:100D90002BE51B14F8881BE6FC3395E0FDFEFF8C69
:100DA0000C8D0D8E0E8F0F20085EAC0C7D007E002A
:100DB0007F008C0C8D0D8E0E8F0F804C300A1FE53E
:100DC0001B24FCF8881B860408860508860608860E
:100DD000071818188C0C8D0D8E0E8F0F802AE51BAE
:100DE00024FEF8881B860408860518ED3395E0FE7E
:100DF000FF8C0C8D0D8E0E8F0F20080CAC0CAD0DE2
:100E00007E007F008E0E8F0F300B43E50C450D45A5
:100E10000E450F60397408B5130C758230C003128B
:100E200005FCD00380287410B51323758230C003ED
:100E30001205FCD00330000C758278C0031205FC4B
:100E4000D003800A758258C0031205FCD003300815
:100E500025AC0CAD0DAE0EE50FFF30E717C3E49CDB
:100E6000FCE49DFDE49EFEE49FFF8C0C8D0D8E0E38
:100E70008F0F8002C208751600D20C8B007510000F
:100E8000C000120646D000200C0DE510C4FCE6FDA3
:100E90004CF61888038002A6100516B20CE50C4526
:100EA0000D450E450F70D68803E5147003751401C7
:100EB00020051A200417E51604FCC39514500E757E
:100EC0008220C0031205FCD003151480E930080EFF
:100ED00075822DC0031205FCD00315148024E5167D
:100EE000602030060E75822BC0031205FCD003155E
:100EF00014800F30070C758220C0031205FCD0034C
:100F0000151420041EAC141514C3E5169C5027308C
:100F100005047C3080027C208C82C0031205FCD04A
:100F20000380E2C3E51695145009E514C39516F540
:100F30001480037514008B00AB161516EB6022B2FB
:100F40000C200C0A08E6C4540FFB8B1080078603A4
:100F5000740F5BF510851082C000120616D0008059
:100F6000D72004030209E6AB141514EB7003020941
:100F7000E67582201205FC80EE8A821205FC0209C9
:100F8000E685118285128322AA82BA0A0810990284
:100F900080FB75990D10990280FB8A992220F71425
:100FA00030F6148883A88220F507E6A883758300AD
:100FB00022E280F7E49322E022C0E0F845824583F4
:100FC00045F07009F5F0FBFCFDFE021087E823A256
:100FD000F792E0F8A982AA83D2F7ABF07C007E07F3
:100FE000C3749798404074FF2EFE740A89F0A4F9E8
:100FF00085F082740A8AF0A4FA85F083740A8BF073
:10100000A4FB740529F9EA3582FAEB3583FB7400F9
:1010100035F0FCC3EC13FCEB13FBEA13FAE913F90C
:1010200008EC70EF80BAE8C3947FF88B838EF0E40D
:10103000FBFCFDFEFF08C3E933F9EA33FAE583332D
:10104000F583EB3BD4FBEC3CD4FCED3DD4FDEE3E14
:10105000D4FEEF3FD4FF602D05F074052BD4FBE4E4
:101060003CD4FCE43DD4FDE43ED4FEE43FD4FF7523
:101070008204C3EF13FFEE13FEED13FDEC13FCEB44
:1010800013FBD582EDD8AF7822D0E020E704762B91
:101090008002762D087906E7C4540F4430F608B96B
:1010A0000603762E08E7540F4430F60819B902E714
:1010B000764508E5F020E704762B8004762DF404CD
:1010C0000875F00A844430F608E5F04430F608E488
:1010D000F690002275F0402220F71030F611888338
:1010E000A88220F507F6A88375830022F280F7F026
:1010F00022AA82AB83ACF07D007E008A828B838C37
:10110000F0120F9DFFA3AA82AB83EF60070DBD0015
:10111000EA0E80E78D828E8322000000000000002E
:00000001FF
