:100000000200037581311200E3E582600302006F94
:10001000780079007A007B007C007D00EC4D601C4C
:1000200088828983E493A3A882A9838A828B83F040
:10003000A3AA82AB831CBCFFE31D80E07582007520
:1000400083007C007D00EC4D600AE4F0A31CBCFF43
:10005000F51D80F27582007583007C007D00EC4DFB
:10006000600AE4F0A31CBCFFF51D80F212007B12B5
:1000700001D980FE25352E33660A00228582E0A252
:10008000E792A1D2A3A2A292F7C2A3A2E692A1D222
:10009000A3A2A292F6C2A3A2E592A1D2A3A2A29287
:1000A000F5C2A3A2E492A1D2A3A2A292F4C2A3A2F7
:1000B000E392A1D2A3A2A292F3C2A3A2E292A1D2FE
:1000C000A3A2A292F2C2A3A2E192A1D2A3A2A2925F
:1000D000F1C2A3A2E092A1D2A3A2A292F0C2A385F0
:1000E000F08222758E1175E60075E70075D60075F1
:1000F000D70075CE0075CF0075C60075C700C2A0C9
:10010000C2A3D2A2438780759852759B00759AF45A
:10011000759B1E75AE0075820022AA82C28C53891F
:10012000F0438901EA24FA5006EA24FBFA80027AB5
:10013000018A1C751D00751E00751F0090FFEA7472
:10014000FFF5F01202A2AA82AB83C28D8B047D0060
:100150008C8C7B008A8AD28C308DFD22AA82AB8364
:100160007C007D00C3EC9AED9B502B7E00BE04000A
:10017000501D7582FAC002C003C004C005C006123B
:10018000011AD006D005D004D003D0020E80DE0CB8
:10019000BC00D10D80CE22AA82C2A0758201C0020D
:1001A00012007CD002EAC454F0FA74804AF582123C
:1001B000007CAA8274035AFC7B00758200C003C0D5
:1001C0000412007CAA82D004D0037D00EA2BFBED50
:1001D0003CFCD2A08B828C83229001F412015C90B3
:1001E000006412015C758200120197120310AA824A
:1001F000AB83ACF0FDC002C003C004C00590126F19
:1002000075F083744012031CAA82AB83ACF0FDE549
:100210008124FCF581E4C0E074C0C0E0747FC0E0DC
:100220007444C0E08A828B838CF0ED120400AA82B1
:10023000AB83ACF0FDE58124FCF5817452C0E07421
:10024000B8C0E0742EC0E07440C0E08A828B838C1A
:10025000F0ED1203F5AA82AB83ACF0FDE58124FC3E
:10026000F581C002C003C004C00590000075F0C84D
:10027000744212031CAA82AB83ACF0FDE58124FC1E
:10028000F581C002C003C004C0057474C0E07400EE
:10029000C0E07480C0E01203D4E58124F9F5810246
:1002A00001DFAAF0FBE582851CF0A4FCADF0E5833C
:1002B000851CF0A42DFDE435F0FEE582851DF0A43B
:1002C0002DFDE5F03EFEE433FFEA851CF0A42EFE92
:1002D000E5F03FFFE583851DF0A42EFEE5F03FFF2E
:1002E000E582851EF0A42EFEE5F03FFFEB851CF0B5
:1002F000A42FFFEA851DF0A42FFFE583851EF0A43F
:100300002FFFE582851FF0A42F8EF08D838C822233
:10031000E4AC83AB82FAF9748E0205281205B4BCF2
:100320000003020553EF60FA30D502B2D1E583B481
:10033000FF03020569E582B4FF03020569258340D6
:10034000072482400B0205532483145003020569DD
:10035000F582EA8DF0A4A8F0EA8EF0A428F8E4353E
:10036000F0F9EB8DF0A428E935F0F9E433CA8FF009
:10037000A429F9EA35F0FAEBF88EF0A429F9EA3568
:10038000F0FAE433FBEC8DF0A429F9EA35F0FAE455
:100390003BFBE88FF0A42AFAEB35F0FBE433CCFD0D
:1003A0008EF0A42AFAEB35F0FBE43CFCED8FF0A4D0
:1003B0002BFBEC35F0FC20E703120581020532022D
:1003C0000F6E85821885831985F01A85091B9003A5
:1003D000BF0209C1C008858108E50824FBF51BE5BB
:1003E0000824FBF8861808861908861A9003BF129D
:1003F00009C1D00822A8811818C6B2E7C6020F8327
:100400001205B430D502B2D1BF0009BC0003020509
:1004100076020569BC0003020553E583B4FF0BE5D2
:1004200082B4FF03020576020553E582B4FF03029E
:100430000569C395835007247F400B020553248030
:10044000145003020569C0E0E4CCCBCAF98D1C8EC0
:100450001D8F1EEF54F0C4F51F758306851FF0EB4A
:1004600084F582E9C4F9EAC4FAEBC4FBEC540FC486
:100470007803D6FC18EBD6FB18EAD6FA8582F0EDA5
:10048000A4A8F0FD8582F0EEA428FEE435F0F885FE
:1004900082F0EFA428FFE435F0F8E99DF9EA9EFA2E
:1004A000EB9FFBEC98FCAD1CAE1DAF1E30E71015AA
:1004B00082E92DF9EA3EFAEB3FFBE43CFC80EDC01B
:1004C00082D58398C3E933F9EA33FAEB33FBEC3393
:1004D000FCC3E99DEA9EEB9FEC9400B3E413F9D0D2
:1004E00002D0E0C44AFAD003D0E0C44BFBD004D021
:1004F000E0F5F0540FC44CFCD082158230F40FD3D9
:10050000EC13FCEB13FBEA13FAE913F90582E9306B
:10051000E70A74012AFAE43BFBE43CFC02054AFCCE
:10052000ABF0AA83A982749EC2D1F5821205810222
:100530000532B98003EA13B34010EA2401FAE43B20
:10054000FBE43CFC50047C800582BC000EBB000B2D
:10055000BA0008E4F5F0F583F58222A2D1E5821312
:100560008CF092F78B838A8222E4F583F58275F012
:1005700080F4A2D11322E4F583F58275F0C0747F74
:10058000227804EC7011E58224F8500AF582E4C95F
:10059000CACBFCD8EF22EC7820058220E713D58265
:1005A0000122C3E933F9EA33FAEB33FBEC33FCD82D
:1005B000EA158222AA82AB83A2F73392D16002D2DB
:1005C000F7F582ACF0E58124F9F8E6FD08E6FE08CF
:1005D00086F008E6A2F73392D56002D2F7F583AF32
:1005E000F022AA8274F3C0E07405C0E0C00AC00B18
:1005F0008A82220511E4B51102051222AA82743002
:100600002AFA24C6500A74072AFA3000034302204B
:100610008A820205E2E582FAC4540FF582C0021212
:1006200005FCD002740F5AF5820205FCAA0CAB0D32
:10063000AC0EAD0FAE10751720EE2EFEED2354015B
:10064000FF4206EA2AFAEB33FBEC33FCED33FDC341
:10065000EE95134008EEC39513FE430201D517D95A
:100660008A0C8B0D8C0E8D0F8E1022782EE624D0E6
:1006700075F00AA4FA782FE624D02AFA782D86039A
:10068000BB2D04C3E49AFA751301C3E464808AF0B5
:1006900063F08095F050297517038A0374F62517C7
:1006A000401C0513E517142422F8E5172422F987C6
:1006B00004A604772E1BEBFA6004051780DE8B027C
:1006C000EA30E70D782386037824A6037823762E74
:1006D0000AE515600AE51504FB2513F513800530BE
:1006E0000B02051378228603E4BB2D0104FB700680
:1006F00020060330070205133004030207B2300559
:1007000057EB600C75822DC0021205E2D002801CEE
:1007100030060C75822BC0021205E2D002800D302B
:10072000070A758220C0021205E2D00278238604EF
:10073000BC2E0C758230C0021205E2D0021514AC3A
:10074000141514C3E5139C40030207F6758230C0EC
:10075000021205E2D00280E7AC141514C3E5139C25
:10076000500C758220C0021205E2D00280EA782285
:100770008604BC2D0C75822DC0021205E2D00280C9
:100780001C30060C75822BC0021205E2D002800DCF
:1007900030070A758220C0021205E2D00278238653
:1007A00004BC2E52758230C0021205E2D00215142C
:1007B0008044EB600E75822DC0021205E2D0021556
:1007C00014802030060E75822BC0021205E2D00282
:1007D0001514800F30070C758220C0021205E2D07C
:1007E00002151478238603BB2E0C758230C00212CA
:1007F00005E2D0021514751701C20DE5172422F881
:100800008603BB45030208B3BB2E348A03C3E464EA
:10081000808BF063F08095F0500F758230C003122A
:1008200005E2D0031B8B0280E48B02D20DE515702C
:1008300038200B030208B375822E1205E280743053
:100840000D278A03EB30E71FC3E464808515F0634E
:10085000F08095F0500C758230C0031205E2D00391
:1008600015150B8B0280DD8B02300D0EC3E4648006
:100870008515F063F08095F05021E5172422F88665
:10088000038B82C0021205E2D002300D0EE5172460
:1008900022F88603BB2E02800215151514C3E464EA
:1008A000808515F063F08095F04003200D05051755
:1008B0000207FBC3E464808515F063F08095F05077
:1008C0000A7582301205E2151580E830040FAA146B
:1008D0001514EA60087582201205E280F122E51500
:1008E0007003300B0D74072515FAE514C39AF5143F
:1008F0008006E51424FAF51475170078228602BAEA
:100900002B0F20060C78227620200705751701058D
:1009100014200419AA14C3E464808AF063F080955B
:10092000F0500A7582201205E2151480E7C20DE529
:10093000172422F88602BA00028069BA451F3000E7
:10094000027665C3E464808515F063F08095F0500D
:100950000A7582301205E2151580E8D20DC3E5173D
:100960009402E433FA7014EA700EC3E464808515CF
:10097000F063F08095F04003300D16E5172422F85F
:1009800086028A821205E2E51724FD5012151580B1
:100990000E7402B51709300B0675822E1205E2059A
:1009A0001702092F300419AA14C3E464808AF06383
:1009B000F08095F0500A7582201205E2151480E748
:1009C0002285820A85830BE4F511F512AA18AB196A
:1009D000AC1A8A828B838CF0120FDCFD74012AF52D
:1009E00018E43BF5198C1AEDFA7003020F67BA256B
:1009F000028003020F5FC204C205C206C207C2081A
:100A0000C209C20AC20BC201C202C2037513007539
:100A100014007515FFAB18AC19AD1A8B828C838D41
:100A2000F0120FDCFAA3AB82AC838B188C198D1AF1
:100A3000BA25078A821205E280928A06BE300040FB
:100A40002E8A06EE24C6402774FFB51513E51475EB
:100A5000F00AA4FEEA24D02EF51470BFD20580BBA4
:100A6000E51575F00AA4FEEA24D02EF51580ACBA7F
:100A70002E0A74FFB515A4751500809F8A06BE6105
:100A800000400E8A06EE248540075302DFD2008024
:100A900002C200BA20028075BA2303020B1CBA2AD4
:100AA00003020B21BA2B02805FBA2D028055BA4295
:100AB00002805FBA4303020B66BA4403020CA1BA78
:100AC0004503020CBBBA4603020CB7BA4703020C3B
:100AD000BFBA4903020CA1BA4C02803BBA4E0302D2
:100AE0000CC3BA4F03020CA8BA5003020C3ABA5313
:100AF00003020B8ABA5503020CADBA5803020CB2BA
:100B0000020CEDD204020A1BD206020A1BD2070213
:100B10000A1BD209020A1BD20A020A1BD20B020AC2
:100B20001B74FFB5152030090BE51B14F8881B86D4
:100B300014020A1BE51B24FEF8881B86060886079C
:100B4000188E14020A1B30090BE51B14F8881B864B
:100B500015020A1BE51B24FEF8881B86060886077B
:100B6000188E15020A1B30090AE51B14F8881B862B
:100B700002800FE51B24FEF8881B860308860418F4
:100B80008B028A821205E2020CF2E51B24FDF88832
:100B90001B860308860408860518188B0C8C0D8D9F
:100BA0000E8B828C838DF0121130AB82AC838B164E
:100BB00074FFB5150385161520041DC3E51695149D
:100BC0005016E514C39516F514AB141514EB600814
:100BD0007582201205E280F1850C82850D83850ED9
:100BE000F0120FDCFBFA6029AB151515C3E4648025
:100BF0008BF063F08095F050188A821205E2AB0CFE
:100C0000AC0DAD0E0BBB00010C8B0C8C0D8D0E8052
:100C1000C7200403020CF2C3E51695144003020C2E
:100C2000F2E514C39516F514AB141514EB7003021A
:100C30000CF27582201205E280EEE51B24FDF88897
:100C40001B860308860408860518188B0C8C0D8DEE
:100C50000EE50EFB30E7047A438013EB546060042A
:100C60007A50800AEB30E6047A4980027A588A8208
:100C7000C0021205E275823A1205E2758230120551
:100C8000E27582781205E2D002BA4902800BBA50AE
:100C9000028006850D82120615850C8212061580CB
:100CA00051D20875130A804A751308804575130AD6
:100CB0008040751310803BD2018037D2028033D23E
:100CC00003802FE51B24FDF8881B86030886040893
:100CD000860518188B0C8C0D8D0E8B828C838DF0F5
:100CE000E511121117A3E51212111780058A82125D
:100CF00005E2200106200203300370E51B24FCF806
:100D0000881B8603088604088605088606181818B6
:100D10008B0C8C0D8D0E8E0FE50CE50DE50EE50FA1
:100D20008B828C838DF0EE120FF874FFB51503756E
:100D30001506300327747F550FFB8B10E510EB2B46
:100D4000FB8B10E50E30E70674014510F510E51039
:100D500024684006749925104002D202300206121F
:100D600008DE0209CC12066B0209CCE513700302FF
:100D700009CC7B2730092BE51B14F8881BE6FC33D4
:100D800095E0FDFEFF8C0C8D0D8E0E8F0F20085E02
:100D9000AC0C7D007E007F008C0C8D0D8E0E8F0FB5
:100DA000804C300A1FE51B24FCF8881B860408864B
:100DB000050886060886071818188C0C8D0D8E0EEF
:100DC0008F0F802AE51B24FEF8881B860408860501
:100DD00018ED3395E0FEFF8C0C8D0D8E0E8F0F20DD
:100DE000080CAC0CAD0D7E007F008E0E8F0F300B0B
:100DF00043E50C450D450E450F60397408B5130CDD
:100E0000758230C0031205E2D00380287410B51338
:100E100023758230C0031205E2D00330000C7582C6
:100E200078C0031205E2D003800A758258C003120D
:100E300005E2D003300825AC0CAD0DAE0EE50FFF7A
:100E400030E717C3E49CFCE49DFDE49EFEE49FFFB5
:100E50008C0C8D0D8E0E8F0F8002C208751600D27D
:100E60000C8B00751000C00012062CD000200C0D59
:100E7000E510C4FCE6FD4CF61888038002A61005B8
:100E800016B20CE50C450D450E450F70D68803E5EE
:100E900014700375140120051A200417E51604FCCC
:100EA000C39514500E758220C0031205E2D00315BD
:100EB0001480E930080E75822DC0031205E2D003BC
:100EC00015148024E516602030060E75822BC003B1
:100ED0001205E2D0031514800F30070C758220C074
:100EE000031205E2D003151420041EAC141514C31C
:100EF000E5169C50273005047C3080027C208C82D3
:100F0000C0031205E2D00380E2C3E5169514500930
:100F1000E514C39516F51480037514008B00AB1609
:100F20001516EB6022B20C200C0A08E6C4540FFB25
:100F30008B1080078603740F5BF510851082C0004C
:100F40001205FCD00080D72004030209CCAB141595
:100F500014EB70030209CC7582201205E280EE8A40
:100F6000821205E20209CC85118285128322AA82AF
:100F7000BA0A0810990280FB75990D10990280FB3E
:100F80008A99221205B47900E583B58202800D505A
:100F900003121158E583C39582121172E5D0C4651E
:100FA000D020E117EA2DFAEB3EFBEC3FFC50097430
:100FB00001121172EC4480FC020532C3EA9DFAEB87
:100FC0009EFBEC9FFC500FC3E499F9E49AFAE49B72
:100FD000FBE49CFCB2D112058102053220F71430EB
:100FE000F6148883A88220F507E6A883758300227B
:100FF000E280F7E49322E022C0E0F8458245834591
:10100000F07009F5F0FBFCFDFE0210C6E823A2F724
:1010100092E0F8A982AA83D2F7ABF07C007E07C3E6
:10102000749798404074FF2EFE740A89F0A4F985E5
:10103000F082740A8AF0A4FA85F083740A8BF0A413
:10104000FB740529F9EA3582FAEB3583FB74003528
:10105000F0FCC3EC13FCEB13FBEA13FAE913F908F9
:10106000EC70EF80BAE8C3947FF88B838EF0E4FBDA
:10107000FCFDFEFF08C3E933F9EA33FAE58333F5F3
:1010800083EB3BD4FBEC3CD4FCED3DD4FDEE3ED4F5
:10109000FEEF3FD4FF602D05F074052BD4FBE43C3C
:1010A000D4FCE43DD4FDE43ED4FEE43FD4FF75829D
:1010B00004C3EF13FFEE13FEED13FDEC13FCEB1373
:1010C000FBD582EDD8AF7822D0E020E704762B80E4
:1010D00002762D087906E7C4540F4430F608B906A5
:1010E00003762E08E7540F4430F60819B902E77664
:1010F0004508E5F020E704762B8004762DF40408FB
:1011000075F00A844430F608E5F04430F608E4F659
:1011100090002275F0402220F71030F6118883A845
:101120008220F507F6A88375830022F280F7F0226B
:10113000AA82AB83ACF07D007E008A828B838CF028
:10114000120FDCFFA3AA82AB83EF60070DBD00EA9C
:101150000E80E78D828E8322E582C583F582A2D13F
:1011600033A2D592D11392D5ECCFFCEBCEFBEACDD6
:10117000FA226040F82582500274FFF582E824F8D4
:10118000501ECCCBCAF9E4CC24F85014CBCAF9E4F5
:10119000CB24F8500BCAF9E4CA24F8500379002292
:1011A00024086010F8C3EC13FCEB13FBEA13FAE914
:1011B00013F9D8F122000000000000000000000038
:00000001FF
