:100000000200037581431200F5E582600302006F70
:10001000780079007A007B007C007D00EC4D601C4C
:1000200088828983E493A3A882A9838A828B83F040
:10003000A3AA82AB831CBCFFE31D80E07582007520
:1000400083007C007D00EC4D600AE4F0A31CBCFF43
:10005000F51D80F27582007583007C007D00EC4DFB
:10006000600AE4F0A31CBCFFF51D80F212008D12A3
:10007000030480FE25352E33660A0025660054658C
:100080006D702843656C73697573293A0022858207
:10009000E0A2E792A1D2A3A2A292F7C2A3A2E69203
:1000A000A1D2A3A2A292F6C2A3A2E592A1D2A3A238
:1000B000A292F5C2A3A2E492A1D2A3A2A292F4C2F8
:1000C000A3A2E392A1D2A3A2A292F3C2A3A2E2921C
:1000D000A1D2A3A2A292F2C2A3A2E192A1D2A3A210
:1000E000A292F1C2A3A2E092A1D2A3A2A292F0C2D4
:1000F000A385F08222758E1175E60075E70075D62E
:100100000075D70075CE0075CF0075C60075C700A5
:10011000C2A0C2A3D2A2438780759852759B007576
:100120009AF4759B1E75AE0075820022AA82C28C5D
:100130005389F0438901EA24FA5006EA24FBFA8045
:10014000027A018A1C751D00751E00751F0090FF44
:10015000EA74FFF5F0120431AA82AB83C28D8B04DE
:100160007D008C8C7B008A8AD28C308DFD22AA8205
:10017000AB837C007D00C3EC9AED9B502B7E00BED0
:100180000400501D7582FAC002C003C004C005C03F
:100190000612012CD006D005D004D003D0020E8068
:1001A000DE0CBC00D10D80CE22AA82C2A0758201D5
:1001B000C00212008ED002EAC454F0FA74804AF5EC
:1001C0008212008EAA8274035AFC7B00758200C0E2
:1001D00003C00412008EAA82D004D0037D00EA2B53
:1001E000FBED3CFCD2A08B828C8322D2B37582289B
:1001F00012012CC2B322AA828AE0A2E792B7A2E639
:1002000092B6A2E592B5A2E492B4C0021201EB75D7
:10021000822812012CD0028AE0A2E392B7A2E292D5
:10022000B6A2E192B5A2E092B40201EBAA82D2B2E8
:100230008A821201F690000202016EAA82C2B28A7C
:10024000821201F690000502016EC2B390001412F2
:10025000016E75823312023B75823312023B758246
:100260003212023B75822812023B75820C12023B4D
:1002700075820112023B90001402016EAA82AB83C8
:10028000ACF07402B508047DC080027D808D82C010
:1002900002C003C00412023B90000512016ED0049C
:1002A000D003D0027D007E00ED2AFFEE3BF88C01EA
:1002B0008F82888389F0120415FF60208F82C0022C
:1002C000C003C004C005C00612022CD006D005D061
:1002D00004D003D0020DBD00CF0E80CC3000248DA1
:1002E000028E03C3EA9410EB6480948050157582EB
:1002F00020C002C00312022CD003D0020ABA00E3CD
:100300000B80E02212024A9001F412016E90006408
:1003100012016E7582001201A912049FAA82AB839A
:10032000ACF0FDC002C003C004C00590126F75F0B0
:100330008374401204ABAA82AB83ACF0FDE5812448
:10034000FCF581E4C0E074C0C0E0747FC0E0744498
:10035000C0E08A828B838CF0ED120624AA82AB83E4
:10036000ACF0FDE58124FCF5817452C0E074B8C0A6
:10037000E0742EC0E07440C0E08A828B838CF0ED84
:10038000120619AA82AB83ACF0FDE58124FCF5814D
:10039000C002C003C004C00590000075F0C87442DC
:1003A0001204ABAA82AB83ACF0FDE58124FCF5819D
:1003B000C002C003C004C005C002C003C004C00521
:1003C0007474C0E07400C0E07480C0E0120563E59E
:1003D0008124F9F581747BC0E07400C0E07480C0B2
:1003E000E07409C0E07400C0E07440C0E01205D3BE
:1003F000E58124F6F581750801D20090007E75F044
:100400008012027C750802D20090000975F040123B
:10041000027C02030D20F71430F6148883A8822092
:10042000F507E6A88375830022E280F7E49322E0D3
:1004300022AAF0FBE582851CF0A4FCADF0E58385E3
:100440001CF0A42DFDE435F0FEE582851DF0A42D01
:10045000FDE5F03EFEE433FFEA851CF0A42EFEE548
:10046000F03FFFE583851DF0A42EFEE5F03FFFE59C
:1004700082851EF0A42EFEE5F03FFFEB851CF0A464
:100480002FFFEA851DF0A42FFFE583851EF0A42F22
:10049000FFE582851FF0A42F8EF08D838C8222E4ED
:1004A000AC83AB82FAF9748E02074C1207D8BC00F9
:1004B00003020777EF60FA30D502B2D1E583B4FFCB
:1004C0000302078DE582B4FF0302078D25834007F1
:1004D0002482400B020777248314500302078DF512
:1004E00082EA8DF0A4A8F0EA8EF0A428F8E435F0B2
:1004F000F9EB8DF0A428E935F0F9E433CA8FF0A4C4
:1005000029F9EA35F0FAEBF88EF0A429F9EA35F08A
:10051000FAE433FBEC8DF0A429F9EA35F0FAE43B78
:10052000FBE88FF0A42AFAEB35F0FBE433CCFD8E28
:10053000F0A42AFAEB35F0FBE43CFCED8FF0A42BA1
:10054000FBEC35F0FC20E7031207A5020756021169
:100550009285823085833185F032851B3390054E3C
:10056000020BE5C013858113E51324FBF533E51376
:1005700024FBF8863008863108863290054E120B2F
:10058000E5D01322AA82AB14AC15AD168B828C83F6
:100590008DF0EA1211A70514E4B5140205152285A1
:1005A000821485831585F0168517308518318519D5
:1005B00032851A33900584120BE5AA82AB83AC1402
:1005C000AD15AE168C828D838EF0E41211A78A824F
:1005D0008B8322C013858113E51324F8F533E513CB
:1005E00024FBF88614088615088616E51324F8F807
:1005F0008630088631088632900584120BE5AA827F
:10060000AB83AC14AD15AE168C828D838EF0E412E4
:1006100011A78A828B83D01322A8811818C6B2E74B
:10062000C60211C01207D830D502B2D1BF0009BC32
:10063000000302079A02078DBC0003020777E583D7
:10064000B4FF0BE582B4FF0302079A020777E58245
:10065000B4FF0302078DC395835007247F400B022C
:100660000777248014500302078DC0E0E4CCCBCA86
:10067000F98D1C8E1D8F1EEF54F0C4F51F75830677
:10068000851FF0EB84F582E9C4F9EAC4FAEBC4FBF8
:10069000EC540FC47803D6FC18EBD6FB18EAD6FA54
:1006A0008582F0EDA4A8F0FD8582F0EEA428FEE49A
:1006B00035F0F88582F0EFA428FFE435F0F8E99DE5
:1006C000F9EA9EFAEB9FFBEC98FCAD1CAE1DAF1E49
:1006D00030E7101582E92DF9EA3EFAEB3FFBE43CE6
:1006E000FC80EDC082D58398C3E933F9EA33FAEB95
:1006F00033FBEC33FCC3E99DEA9EEB9FEC9400B323
:10070000E413F9D002D0E0C44AFAD003D0E0C44BDD
:10071000FBD004D0E0F5F0540FC44CFCD08215821D
:1007200030F40FD3EC13FCEB13FBEA13FAE913F9E3
:100730000582E930E70A74012AFAE43BFBE43CFC59
:1007400002076EFCABF0AA83A982749EC2D1F58227
:100750001207A5020756B98003EA13B34010EA2432
:1007600001FAE43BFBE43CFC50047C800582BC00C5
:100770000EBB000BBA0008E4F5F0F583F58222A267
:10078000D1E582138CF092F78B838A8222E4F58381
:10079000F58275F080F4A2D11322E4F583F5827519
:1007A000F0C0747F227804EC7011E58224F8500ABE
:1007B000F582E4C9CACBFCD8EF22EC782005822070
:1007C000E713D5820122C3E933F9EA33FAEB33FBAD
:1007D000EC33FCD8EA158222AA82AB83A2F73392CB
:1007E000D16002D2F7F582ACF0E58124F9F8E6FD9C
:1007F00008E6FE0886F008E6A2F73392D56002D23A
:10080000F7F583AFF022AA827417C0E07408C0E045
:10081000C022C0238A82220529E4B52902052A22A2
:10082000AA8274302AFA24C6500A74072AFA3001C0
:10083000034302208A82020806E582FAC4540FF5B7
:1008400082C002120820D002740F5AF582020820DA
:10085000AA24AB25AC26AD27AE28752F20EE2EFEA0
:10086000ED235401FF4206EA2AFAEB33FBEC33FC9A
:10087000ED33FDC3EE952B4008EEC3952BFE4302EE
:1008800001D52FD98A248B258C268D278E28227876
:1008900040E624D075F00AA4FA7841E624D02AFA7A
:1008A000783F8603BB2D04C3E49AFA752B01C3E499
:1008B00064808AF063F08095F05029752F038A03D5
:1008C00074F6252F401C052BE52F142434F8E52F52
:1008D0002434F98704A604772E1BEBFA6004052F55
:1008E00080DE8B02EA30E70D783586037836A60382
:1008F0007835762E0AE52D600AE52D04FB252BF5CB
:100900002B8005300C02052B78348603E4BB2D01C7
:1009100004FB7006200703300802052B3005030294
:1009200009D6300657EB600C75822DC002120806FE
:10093000D002801C30070C75822BC002120806D032
:1009400002800D30080A758220C002120806D0020B
:1009500078358604BC2E0C758230C002120806D091
:1009600002152CAC2C152CC3E52B9C4003020A1A53
:10097000758230C002120806D00280E7AC2C152C1C
:10098000C3E52B9C500C758220C002120806D002D1
:1009900080EA78348604BC2D0C75822DC0021208C2
:1009A00006D002801C30070C75822BC0021208068C
:1009B000D002800D30080A758220C002120806D0CD
:1009C0000278358604BC2E52758230C002120806A9
:1009D000D002152C8044EB600E75822DC0021208E7
:1009E00006D002152C802030070E75822BC0021213
:1009F0000806D002152C800F30080C758220C0022A
:100A0000120806D002152C78358603BB2E0C758291
:100A100030C002120806D002152C752F01C20EE557
:100A20002F2434F88603BB4503020AD7BB2E348A31
:100A300003C3E464808BF063F08095F0500F7582FF
:100A400030C003120806D0031B8B0280E48B02D255
:100A50000EE52D7038200C03020AD775822E12087D
:100A6000068074300E278A03EB30E71FC3E46480EE
:100A7000852DF063F08095F0500C758230C0031224
:100A80000806D003152D0B8B0280DD8B02300E0E75
:100A9000C3E46480852DF063F08095F05021E52F4C
:100AA0002434F886038B82C002120806D002300E6E
:100AB0000EE52F2434F88603BB2E028002152D1577
:100AC0002CC3E46480852DF063F08095F040032012
:100AD0000E05052F020A1FC3E46480852DF063F024
:100AE0008095F0500A758230120806152D80E83086
:100AF000050FAA2C152CEA600875822012080680C2
:100B0000F122E52D7003300C0D7407252DFAE52C2C
:100B1000C39AF52C8006E52C24FAF52C752F007865
:100B2000348602BA2B0F20070C7834762020080573
:100B3000752F01052C200519AA2CC3E464808AF0C6
:100B400063F08095F0500A758220120806152C80FB
:100B5000E7C20EE52F2434F88602BA00028069BA93
:100B6000451F3001027665C3E46480852DF063F093
:100B70008095F0500A758230120806152D80E8D253
:100B80000EC3E52F9402E433FA7014EA700EC3E446
:100B90006480852DF063F08095F04003300E16E5FB
:100BA0002F2434F886028A82120806E52F24FD508D
:100BB00012152D800E7402B52F09300C0675822E89
:100BC000120806052F020B53300519AA2CC3E46442
:100BD000808AF063F08095F0500A75822012080632
:100BE000152C80E722858222858323E4F529F52AC6
:100BF000AA30AB31AC328A828B838CF0120415FDA3
:100C000074012AF530E43BF5318C32EDFA700302C1
:100C1000118BBA25028003021183C205C206C207E6
:100C2000C208C209C20AC20BC20CC202C203C20479
:100C3000752B00752C00752DFFAB30AC31AD328BB0
:100C4000828C838DF0120415FAA3AB82AC838B30B7
:100C50008C318D32BA25078A8212080680928A0664
:100C6000BE3000402E8A06EE24C6402774FFB52D04
:100C700013E52C75F00AA4FEEA24D02EF52C70BFE3
:100C8000D20680BBE52D75F00AA4FEEA24D02EF52D
:100C90002D80ACBA2E0A74FFB52DA4752D00809F4F
:100CA0008A06BE6100400E8A06EE24854007530284
:100CB000DFD2018002C201BA20028075BA2303028A
:100CC0000D40BA2A03020D45BA2B02805FBA2D02ED
:100CD0008055BA4202805FBA4303020D8ABA4403C8
:100CE000020EC5BA4503020EDFBA4603020EDBBA96
:100CF0004703020EE3BA4903020EC5BA4C02803B19
:100D0000BA4E03020EE7BA4F03020ECCBA500302EA
:100D10000E5EBA5303020DAEBA5503020ED1BA5895
:100D200003020ED6020F11D205020C3FD207020CAD
:100D30003FD208020C3FD20A020C3FD20B020C3FFA
:100D4000D20C020C3F74FFB52D20300A0BE5331492
:100D5000F88833862C020C3FE53324FEF88833866E
:100D600006088607188E2C020C3F300A0BE5331458
:100D7000F88833862D020C3FE53324FEF88833864D
:100D800006088607188E2D020C3F300A0AE5331438
:100D9000F888338602800FE53324FEF88833860313
:100DA000088604188B028A82120806020F16E533A1
:100DB00024FDF88833860308860408860518188BF6
:100DC000248C258D268B828C838DF0121338AB8278
:100DD000AC838B2E74FFB52D03852E2D20051DC3EE
:100DE000E52E952C5016E52CC3952EF52CAB2C1525
:100DF0002CEB600875822012080680F1852482851C
:100E000025838526F0120415FBFA6029AB2D152DDC
:100E1000C3E464808BF063F08095F050188A8212EE
:100E20000806AB24AC25AD260BBB00010C8B248C33
:100E3000258D2680C7200503020F16C3E52E952CAD
:100E40004003020F16E52CC3952EF52CAB2C152C68
:100E5000EB7003020F1675822012080680EEE53350
:100E600024FDF88833860308860408860518188B45
:100E7000248C258D26E526FB30E7047A438013EB8E
:100E8000546060047A50800AEB30E6047A498002AC
:100E90007A588A82C00212080675823A12080675CC
:100EA0008230120806758278120806D002BA49020A
:100EB000800BBA500280068525821208398524826B
:100EC0001208398051D209752B0A804A752B088087
:100ED00045752B0A8040752B10803BD2028037D29B
:100EE000038033D204802FE53324FDF88833860352
:100EF00008860408860518188B248C258D268B827D
:100F00008C838DF0E5291211A7A3E52A1211A78081
:100F1000058A82120806200206200303300470E5C9
:100F20003324FCF88833860308860408860508867F
:100F3000061818188B248C258D268E27E524E52588
:100F4000E526E5278B828C838DF0EE12121974FF53
:100F5000B52D03752D06300427747F5527FB8B288C
:100F6000E528EB2BFB8B28E52630E70674014528A6
:100F7000F528E52824684006749925284002D20304
:100F8000300306120B02020BF012088F020BF0E581
:100F90002B7003020BF07B39300A2BE53314F888F1
:100FA00033E6FC3395E0FDFEFF8C248D258E268FE5
:100FB0002720095EAC247D007E007F008C248D25D7
:100FC0008E268F27804C300B1FE53324FCF88833A6
:100FD00086040886050886060886071818188C24D3
:100FE0008D258E268F27802AE53324FEF8883386C8
:100FF0000408860518ED3395E0FEFF8C248D258EC0
:10100000268F2720090CAC24AD257E007F008E267C
:101010008F27300C43E52445254526452760397444
:1010200008B52B0C758230C003120806D003802847
:101030007410B52B23758230C003120806D003301C
:10104000010C758278C003120806D003800A7582ED
:1010500058C003120806D003300925AC24AD25AED4
:1010600026E527FF30E717C3E49CFCE49DFDE49EE2
:10107000FEE49FFF8C248D258E268F278002C209D7
:10108000752E00D20D8B00752800C000120850D0BC
:1010900000200D0DE528C4FCE6FD4CF61888038001
:1010A00002A628052EB20DE52445254526452770C4
:1010B000D68803E52C7003752C0120061A2005172D
:1010C000E52E04FCC3952C500E758220C003120837
:1010D00006D003152C80E930090E75822DC003124D
:1010E0000806D003152C8024E52E602030070E75ED
:1010F000822BC003120806D003152C800F30080C79
:10110000758220C003120806D003152C20051EACE2
:101110002C152CC3E52E9C50273006047C30800211
:101120007C208C82C003120806D00380E2C3E52E27
:10113000952C5009E52CC3952EF52C8003752C00B9
:101140008B00AB2E152EEB6022B20D200D0A08E6A7
:10115000C4540FFB8B2880078603740F5BF528852A
:101160002882C000120820D00080D7200503020B7F
:10117000F0AB2C152CEB7003020BF07582201208DB
:101180000680EE8A82120806020BF0852982852AE3
:101190008322AA82BA0A0810990280FB75990D1061
:1011A000990280FB8A992220F71030F6118883A8D3
:1011B0008220F507F6A88375830022F280F7F022DB
:1011C0001207D87900E583B58202800D500312130F
:1011D00060E583C3958212137AE5D0C465D020E11F
:1011E00017EA2DFAEB3EFBEC3FFC50097401121399
:1011F0007AEC4480FC020756C3EA9DFAEB9EFBECB6
:101200009FFC500FC3E499F9E49AFAE49BFBE49C39
:10121000FCB2D11207A5020756C0E0F8458245830B
:1012200045F07009F5F0FBFCFDFE0212E7E823A291
:10123000F792E0F8A982AA83D2F7ABF07C007E0790
:10124000C3749798404074FF2EFE740A89F0A4F985
:1012500085F082740A8AF0A4FA85F083740A8BF010
:10126000A4FB740529F9EA3582FAEB3583FB740097
:1012700035F0FCC3EC13FCEB13FBEA13FAE913F9AA
:1012800008EC70EF80BAE8C3947FF88B838EF0E4AB
:10129000FBFCFDFEFF08C3E933F9EA33FAE58333CB
:1012A000F583EB3BD4FBEC3CD4FCED3DD4FDEE3EB2
:1012B000D4FEEF3FD4FF602D05F074052BD4FBE482
:1012C0003CD4FCE43DD4FDE43ED4FEE43FD4FF75C1
:1012D0008204C3EF13FFEE13FEED13FDEC13FCEBE2
:1012E00013FBD582EDD8AF7834D0E020E704762B1D
:1012F0008002762D087906E7C4540F4430F608B909
:101300000603762E08E7540F4430F60819B902E7B1
:10131000764508E5F020E704762B8004762DF4046A
:101320000875F00A844430F608E5F04430F608E425
:10133000F690003475F04022AA82AB83ACF07D00B9
:101340007E008A828B838CF0120415FFA3AA82ABE5
:1013500083EF60070DBD00EA0E80E78D828E832249
:10136000E582C583F582A2D133A2D592D11392D55D
:10137000ECCFFCEBCEFBEACDFA226040F8258250A0
:101380000274FFF582E824F8501ECCCBCAF9E4CCF5
:1013900024F85014CBCAF9E4CB24F8500BCAF9E472
:1013A000CA24F8500379002224086010F8C3EC1313
:1013B000FCEB13FBEA13FAE913F9D8F12200000061
:00000001FF
